:020000040800F2
:1000000088060020190100081B0B0008790A000867
:10001000190B0008C503000849190008000000007A
:10002000000000000000000000000000C30D0008F8
:100030001B07000800000000DB0C0008DD160008AC
:1000400033010008330100083301000833010008C0
:1000500033010008330100083301000833010008B0
:1000600033010008330100083301000833010008A0
:100070003301000833010008330100083301000890
:100080003301000833010008330100086B18000831
:10009000FB18000833010008330100083301000891
:1000A0003301000833010008330100083301000860
:1000B0003301000833010008330100083301000850
:1000C0003301000833010008330100083301000840
:1000D0003301000849180008330100083301000803
:1000E00033010008330100084B180008FFFFFFFF31
:1000F00029072020FFFFFFFFFFFFFFFFFFFFFFFF9C
:1001000000000000DFF80CD000F02AF8004800479B
:10011000CD1A000888060020064880470648004798
:10012000FEE7FEE7FEE7FEE7FEE7FEE7FEE7FEE7A7
:10013000FEE7FEE7ED1600080501000840EA0103AE
:100140009B0703D009E008C9121F08C0042AFAD28D
:1001500003E011F8013B00F8013B521EF9D2704751
:10016000064C074D06E0E06840F0010394E8070004
:1001700098471034AC42F6D3FFF7C8FF2C20000894
:100180004C20000870B540F21015C2F20005296835
:100190000A78C02A1CBF022070BD052813D0902801
:1001A00018D188887E2101EAD014204601F087FC0E
:1001B00040F21C16C2F200063070601C01F07FFC99
:1001C000296870700CE040F21C10C2F2000046F288
:1001D000010204E040F21C10C2F200000022028082
:1001E00040F23920C0F6000088610220086100203A
:1001F00070BD40F21401C2F2000101F071B940F289
:100200001C01C2F2000101F06BB940F21011C2F200
:1002100000010968C978042984BF0020704740F2B2
:100220005802C2F2000202EBC10101F059B90843C1
:1002300018BF01204000704720B140F21C10C2F2EC
:100240000000704740F21010C2F200000068022166
:1002500001820020704710B500F0E6FB40F210105C
:10026000C2F2000000680024847200F05BFD01F01F
:1002700046FB01F081FB40F20810C2F2000004606E
:1002800010BD40F21010C2F200000068007800F0CB
:100290007F00403818BF012040007047B0B540F2E1
:1002A000101041F6CE72C2F20000C0F600020068E3
:1002B000D279002141814272002000F083FD0020AC
:1002C0004FF4007100F0CDFE0020202100F0A1FECF
:1002D0000020202100F028FE0020602100F07DFE9B
:1002E000002000F0A4F940F22405C2F2000595F8C0
:1002F0002C10002000F027FE002000F05FFE0120FF
:100300000021012400F0ADFE0120A02100F065FED7
:100310000120402100F070FE0120202100F079FE34
:100320000120002100F031FE0220002100F099FEA2
:10033000022000F0EAFD02204FF480714FF4A07219
:1003400000F068FD02200121402200F080FD022023
:1003500000F045F9022000F056F9022001F065FA9C
:1003600002204FF4405100F010FE0220002100F066
:1003700050FE95F82C10002000F0E5FD002000F064
:100380001DFE002000F026FD40F20810C2F2000021
:100390000460B0BD40F21010C2F200000068807A24
:1003A00028B140F20810C2F2000005210160704738
:1003B00040F20810C2F2000004210160704770474B
:1003C00070470000FEE740BA704700002DE9F04F8B
:1003D00081B045F64444C4F20004206840F286250A
:1003E000C2F20005010428803AD540F2001740F21D
:1003F000A40940F2C00B47F6FF76C2F2000748F6A8
:100400000F78C2F2000940F68F7AC2F2000B00BFEB
:10041000204640F84469298801F00F01397050F8EE
:10042000212013040CD4120616D550F8212002EA1C
:10043000080240F82120387809EB800009E000BF6D
:1004400050F8212002EA0A0240F8212038780BEB0C
:10045000800050F8040C8047206801042880D7D41D
:1004600001B0BDE8F08F00002DE9F04F81B045F6F6
:1004700000440020C4F20004ADF80200606C40F2B9
:100480008627C2F200070104388040F1A58040F2BF
:10049000001540F2021640F2A40BC2F20005C2F2AF
:1004A000000643F63F794AF2A00A48F60F78C2F2F6
:1004B000000B00BF388810F00F0028702CD054F8C3
:1004C0002010ADF80210BDF90210B1F1FF3F10DCB1
:1004D00054F8201040F68F72114044F8201028780C
:1004E00040F2C001C2F2000101EB800050F8040CA0
:1004F0008047BDF80200000631D5287854F8201056
:1005000001EA080144F8201028780BEB800050F82D
:10051000040C804723E000BF206840F204113080C3
:100520003088C2F2000100F030000880308800F40A
:1005300040503080206800EA090080EA0A0020600C
:1005400039882068C9060FD5ADF80200BDF8020051
:10055000000510D4BDF90200B0F1FF3F13DD606C5F
:1005600001043880A6D437E048F60F7108402060B7
:1005700000F084FA0EE0206840F68F710840206099
:1005800000F07CFD06E0206840F68F710840206096
:1005900000F01FFB206832884BF6BF710840D10481
:1005A000318848BF80F48050890440F20411C2F2BF
:1005B00000010A46098848BF80F40050C906118826
:1005C00048BF80F01000890648BF80F0200048F244
:1005D0008001084380B2206001B0BDE8F08F45F68D
:1005E0000041C4F2000151F82020520458BF704766
:1005F00051F8202040F60F731A404CF280031A4342
:1006000041F82020704745F60041C4F2000151F83E
:100610002020520658BF704751F8202040F60F7333
:100620001A4048F2C0031A4341F82020704745F6AB
:100630000041C4F2000151F8202040F60F631A4037
:1006400048F280031A4341F8202070472DE9F04317
:1006500081B040F21018C2F20008D8F80060378A62
:100660000FBB307A04281ED140F2E000C2F2000035
:100670000178012946D145F65041C4F200010A68CB
:100680004FF6FE73C0F2010303EA42021144002256
:10069000C1F8B42340F20411C2F2000130230B80F0
:1006A0000270042035E0B58AB1692C46BD4288BF8E
:1006B0003C46204688478146002000F0A8F90146C4
:1006C0004846224601F042F90020214600F094FC01
:1006D000308A718A001B30820819708240F204103F
:1006E000C2F200003021018040F20210C2F200008C
:1006F0004FF440510180D8F800600420AF4288BF19
:10070000022006E040F20410C2F200001021018035
:100710000720307201B0BDE8F083704740F2A000BE
:10072000C2F2000001210170704740F20C10C2F2C9
:10073000000001210170704740F21441C4F2010130
:100740000860704710B584B04FF480204FF48024C7
:10075000FFF7F2FF08200094029001200390684602
:1007600000F002F804B010BD10B5C168002940F2D5
:100770000041C4F2010121D0D1F800E090E814104A
:10078000BCF1100F2EEA02030B604B6823EA020350
:100790004B60635842EA0302625000688A6822EAAA
:1007A00000028A60CA6822EA0002CA600CD18A6824
:1007B00002438A60CA681043C86010BD05C8535818
:1007C00023EA0000505010BD5CF8012010434CF8A3
:1007D000010010BD012905D0022918BF70474CF255
:1007E000800101E048F2C00145F6004CC4F2000C63
:1007F0005CF8203040F60F721A4011434CF820107C
:1008000070472DE9F04184B040F600054FF40040F8
:10081000C4F2010501ACADF8040010274FF0020846
:10082000284621460397CDF8088000F02DF84FF4B4
:100830002E70ADF80400012005F58066CDE90207B1
:100840003046214600F020F84FF4A070ADF80400C7
:10085000482003903046214600F016F84FF400502F
:10086000ADF8040005F500602146CDE9028700F0EF
:100870000BF840F20020C0F23000012100F05AF8DD
:1008800004B0BDE8F08100002DE9F0418A6802F073
:100890000F0CD30644BF4B684CEA030C09880B06C7
:1008A00020D0056800234FF001084FF00F0E0026FE
:1008B00008FA06F70F420FD00EFA03F425EA0404F3
:1008C0000CFA03F5482A45EA040503D0282A08BF94
:1008D000476101E0076100BF0136082E03F1040300
:1008E000E6D10560B1F5807F38BFBDE8F08144688E
:1008F00000234FF4807E4FF00F0800260EFA06F713
:1009000007EA0105BD420DD108FA03F5AC430CFA24
:1009100003F5482A44EA050403D0282A08BF4761A2
:1009200000E007610136082E03F10403E6D14460BC
:10093000BDE8F081B0B50422C4F20102134602F111
:10094000180E002848BF73461B6800F44014C0F31B
:100950000345B4F5401F1FFA80FC06D1146823F04C
:10096000706324F0706414600DE0C40206D46FF06C
:100970000F0404EA50440CFA04F401E00324AC40F0
:10098000A34343F0706331B16FF00F0101EA5041AE
:100990000CFA01F10B43002848BF72461360B0BD4A
:1009A000416170470161704745F60041C4F20001A2
:1009B00051F8200080B2704745F65041C4F2000162
:1009C0000A6892B202EBC00001EB4000D0F8B40319
:1009D0006FF39F20704745F65041C4F200010A684A
:1009E00092B202EBC00001EB4000D0F8BC036FF301
:1009F0009F20704745F65041C4F200010A6892B248
:100A000002EBC00001EB4000B0F8B803704745F6B8
:100A10005041C4F200010A6892B202EBC00001EB3F
:100A20004000B0F8B003704710B54FF2E870C1F65F
:100A3000FF70D0E9001280681144401808BF10BD53
:100A400040F20001C2F200014FF0000C4FF0370EEF
:100A50008B1C0021020F0EEB1074B0F1204F38BF39
:100A600002F130045C5441F001020231000110290E
:100A700003F802C0EED110BDFEE70000B0B540F2B1
:100A80001014C2F200042068017A022903D006295A
:100A900006D0042913D1FFF7D9FD2068017A0FE0B1
:100AA0004178052904BF01785FEA41610DD040F229
:100AB0001410C2F200000068806880472068082196
:100AC0000172BDE8B04000F009B940F25401C2F231
:100AD00000010A7890F803C045F60040C4F2000017
:100AE0007AB1002340F60F7E48F2800150F823507F
:100AF00005EA0E051D430D4340F8235001339A4289
:100B0000F4D14CF08001C16440F21810C2F2000030
:100B10000068006A8047CAE7FEE770477047B0B5D3
:100B200082B04FF4A06000F04AF84FF40570ADF8C1
:100B30000000002501206C468DF8025001902046EF
:100B400000F00EF84FF49570ADF80000204600F06C
:100B500007F84EF62350CEF20000057002B0B0BD8B
:100B600010B5416800294EF20011CEF200011AD0F2
:100B70004EF60C52CEF200021268072323EA12222C
:100B80000F23C2F1040C23FA02F24378847890F820
:100B900000E003FA0CF322401A43120101EB0E03AA
:100BA00083F8002300E080310078012300F01F0269
:100BB00003FA02F2C0F3421041F8202010BD40F0C9
:100BC00080604EF60C5140F0FD70CEF200010860DE
:100BD0007047F0B581B040F21017C2F200073E68CE
:100BE000307A032803D007282FD0052835D1308A42
:100BF000B8B1B169A9B1B48A844288BF044620461D
:100C00008847318A0546081B718A3082081970822C
:100C10000020FFF7EFFE01462846224600F048F884
:100C2000308AE0B140F20210C2F200004FF44051AD
:100C300001800020002100F0DFF940F20410C2F230
:100C4000000030210180308A0AE040F21410C2F224
:100C500000000068C06880473E68082022E000204D
:100C6000B18A884203D23E6828B1052001E03E687F
:100C70000320307216E0062045F650413072C4F26F
:100C800000010A684FF6FE73C0F2010303EA420254
:100C900011440022C1F8B42340F20411C2F2000151
:100CA00030220A80307201B0BDE8F04000F016B882
:100CB00001320023B3EB520F08BF704746F2000326
:100CC000C4F20003520803EB410100BF51F8043B9A
:100CD000013A20F8023BF9D17047704780B540F2E5
:100CE0002400C2F2000090F82C10002000F02BF934
:100CF00040F21010C2F200000068007A08280CD1FF
:100D000040F20211C2F200014FF480520A8040F218
:100D10000411C2F2000110220A800938B0FA80F0F2
:100D2000400980BD10B50120012400F092FD45F678
:100D30004041C4F2000100200C600860486040F2AD
:100D40008420C2F200004FF4E052028000200A60CA
:100D500010BD002941F21C01C4F202010A680CBF57
:100D600022EA0000104308607047002941F2180190
:100D7000C4F202010A680CBF22EA000010430860B6
:100D8000704780B501200121FFF7EFFF042001210A
:100D9000FFF7EBFF08200121FFF7E7FF10200121FB
:100DA000FFF7E3FF4FF400000121FFF7D2FF00201F
:100DB000BDE88040AFF30080D821C4F24221086032
:100DC0007047704745F6504120F00700C4F200011B
:100DD0000860704710B540F25401C2F200010A7871
:100DE00045F60041C4F2000182B1002340F60F7CB9
:100DF00048F2800E51F8234004EA0C041C4344EAF4
:100E00000E0441F8234001339A42F3D140F08000B0
:100E1000C86410BD80B54FF6504C46F2000ECFF6B8
:100E2000FF7CC4F2000E5EF80C3021F001019BB291
:100E300003EBC0034EF813105EF80C1022F0010211
:100E400089B201EBC0000EEB4000826080BDB0B5FE
:100E5000022920D0012918BFB0BD46F204014FF687
:100E60004C4CC4F20001CFF6FF7C51F80C304FEA35
:100E7000C00E9BB23F2A03EBC00022D353094FF0B0
:100E8000FF34D50608BF04EB52139BB24FF4004465
:100E900044EA83231AE04FF64C4146F20403CFF6AE
:100EA000FF71C4F200035D58ADB205EBC00543F815
:100EB0001520595889B201EBC00003EB4000826055
:100EC000B0BD02F0010303EB52039B0241F8103066
:100ED00051F80C003F2A80B2704401F108010CD394
:100EE00053094FF0FF35D40608BF05EB52139AB2F1
:100EF0004FF4004343EA822204E002F0010303EBD3
:100F00005202920241F81020B0BD45F60041C4F2F1
:100F1000000151F8202040F60F631A4048F2801378
:100F20001A4341F82020704745F65042C4F20002AF
:100F3000136821F001019BB203EBC00002EB4000FB
:100F4000C0F8B813704780B545F65042C4F20002AD
:100F500013683F299BB203EBC00E02F56F720CD3EE
:100F60004B09C8064FF0FF3C08BF0CEB511398B279
:100F70004FF4004141EA802104E001F0010000EB60
:100F80005100810242F81E1080BD45F6004CC4F2AB
:100F9000000C5CF8203044F2700223EA0202CB0419
:100FA00048BF82F48052890448F2800148BF82F42D
:100FB0000052114389B24CF82010704745F60041A9
:100FC000C4F2000151F8202043F60F731A404BF28F
:100FD00080035A4041F82020704745F65042C4F241
:100FE0000002136821F001019BB203EBC00002EB89
:100FF0004000C0F8B013704745F65042C4F20002FA
:1010000013689BB203EBC00002EB4000C0F8B413BE
:10101000704745F6004CC4F2000C5CF8203047F2F3
:10102000400223EA0202CB0648BF82F01002890682
:1010300048F2800148BF82F02002114389B24CF887
:101040002010704745F60041C4F2000151F82020FD
:1010500040F63F731A4048F2B0035A4041F820204E
:10106000704745F6004CC4F2000C5CF8203048F69E
:101070008F121A4011434CF8201070472DE9F041AF
:1010800082B045F6004640F21018C4F20006C2F2E3
:101090000008306DD8F8001046F201070A7A4FF6C2
:1010A000FE75C4F20007092AC0F2010501D1C88803
:1010B0001EE005EA40003844D0F8070005EA400089
:1010C000321892F80024C4190A70C25DB4F8030003
:1010D0004A70FFF778F9D8F800104880B4F8070094
:1010E000FFF771F9D8F800108880B4F80B00C880B9
:1010F0004C7801220A72F0B1620842EAC412D2B2FC
:10110000052A59D8DFE802F0035858550F3702284E
:1011100005D14A881AB90A79002A00F07B800A2C86
:1011200029D0082C48D10878400645D141F2AF4279
:10113000C0F60002FAE0087800F07F0002284CD0E8
:10114000012851D0002840F09080601E082800F24D
:101150008C80DFE800F0058A6C8A7D8A8A8A8700A5
:10116000C878012840F08180888800287DD1487A9D
:10117000800636D479E00A7802F07F02012A1BD17A
:101180008A7ACAB14A88BAB9012815D1087998B9BA
:1011900040F21410C2F20000006882694879002110
:1011A000904748B9D8F8001041F2FF42C0F600025B
:1011B000BCE0087840061CD040F21410C2F20000D7
:1011C0000068D8F800100269487890470446032860
:1011D00040F0B180D8F80000B4E0032C17D0012C07
:1011E00043D100F0FAF83FE00B2C3ED100F04CFA6E
:1011F0003AE08878032859D002285ED00128DBD154
:1012000040F21410C2F2000000681C305BE000F0F5
:10121000F9F929E0087800F07F00022856D001286B
:101220006ED00028C8D188880028C5D17AE0C87857
:1012300001281AD18888C0B940F21812C2F20002FF
:101240001268487AD26940F020004872904719E04D
:1012500091F90300002813D4887888B9888878B970
:10126000887A0CE000F0B0F960B140F21410C2F2DC
:1012700000000068416920468847032811D008B162
:1012800008200FE0306D002105EA40003844C0F826
:10129000031040F20410C2F2000030210180062049
:1012A00000E00920D8F8001008724DE040F2141058
:1012B000C2F200000068243005E040F21410C2F2CF
:1012C000000000682030026882BB75E74F7907F0A4
:1012D0000F033A0656F823004FF0300258BF4FF480
:1012E000405217F0700F7FF467AF40F25407C2F21C
:1012F00000073F78BB42BFF45FAF104012D15BE7FD
:1013000040F21410C2F2000000688269487900219E
:10131000904700287FF450AFD8F80010887A002852
:101320003FF44AAF41F23152C0F6000200240020DF
:101330004C828A619047D8F800004FF6FF72018A0C
:10134000914206D10921017202B0BDE8F041FFF7D8
:10135000C5BC022C18BF002901D10821F3E790F980
:101360000020B2F1FF3F09DD0321017240F20210BB
:10137000C2F200004FF440510180E5E7C2880192BB
:10138000019B8B4202D2019901821BE0914219D24A
:1013900040F21412C2F20002126892F82C2091421C
:1013A00005D240F2E001C2F20001002209E0B1FBE7
:1013B000F2F303FB121129B940F2E001C2F200017D
:1013C00001220A7040F21411C2F20001096891F87A
:1013D0002C108182FFF73AF9B6E770B540F2101091
:1013E000C2F200000168087800F07F00022806D0F1
:1013F00048B9487A00F0DF004872002070BD488884
:1014000008B9087908B1022070BD487945F6004650
:1014100000F07F0410F0800240F25400C4F2000695
:10142000C2F2000056F8243000784FF4405518BF3F
:10143000302584424FF00200E0D22B4008BF70BD3F
:10144000887A0028DFD056F824005AB100F0300026
:10145000102824D12046FFF7D6F820463021FFF788
:10146000D8FD1CE000F44050B0F5805F17D11CB1EE
:101470002046FFF7B4F808E040F22400C2F2000072
:1014800090F82C102046FFF75EFD56F8240043F636
:101490000F7108404BF28001484046F8240040F2AA
:1014A0001810C2F20000006840698047A5E780B5C7
:1014B00068B140F21810C2F200000068006880476E
:1014C00040F21010C2F2000000680A3080BD40F205
:1014D0001010C2F20000006801210182002080BDCE
:1014E00040F21012C2F2000213685A8A10B1086862
:1014F000104470478888801A18820020704780B591
:1015000068B140F21810C2F200000068806880479D
:1015100040F21010C2F2000000680C3080BD40F2B2
:101520001010C2F20000006801210182002080BD7D
:1015300080B5D8B140F2101140F20610C2F200019D
:10154000C2F200000968002202800A7802F07F02DD
:10155000022A14D0012A08BF80BD72B9497A02223A
:1015600002EA1112C1F38011114420E040F2101080
:10157000C2F20000006802210182002080BD91F9C2
:10158000052045F6004302F00F01C4F2000353F8B2
:101590002110B2F1FF3F05DD01F44051B1F5805F4C
:1015A00006D103E001F03001102901D101210170C1
:1015B00040F21810C2F2000000680069804740F253
:1015C0000610C2F2000080BD80B540F21010C2F2D9
:1015D0000000006840F25402C2F20002C178527862
:1015E000914203D882780AB982880AB1022080BD6C
:1015F00040F21812C2F200021268526881729047DB
:10160000002080BD10B540F21010C2F20000036847
:1016100045F6004E5A7940F2540002F07F01C4F2C0
:10162000000EC2F200005EF821400078814229D20B
:101630004FF4405012F0800C18BF302020424FF081
:1016400002001ED05A88E2B9987AD8B15EF821001B
:1016500043F60F72BCF1000F18BF40F63F7249F21B
:10166000800300EA020018BF48F2900358404EF889
:10167000210040F21810C2F2000000688069804723
:10168000002010BD022010BD10B540F2141040F231
:101690001014C2F20000C2F20004006822688369DC
:1016A000D1785079984700284FF0020015D1216871
:1016B0008A7A92B1087908B9887808B1022010BDF9
:1016C00040F21810C2F200000068C068804720682D
:1016D0004179C278C1720273002010BD40F28020AF
:1016E000C2F20000016801310160704782B041F22E
:1016F0000000C4F202000168002241F00101016013
:101700004168CFF6FF021140416001684FF6FF7259
:10171000CFF6F66211400160016821F4802101607A
:10172000416821F4FE0141604FF41F0181600021F6
:1017300001910091016841F480310160016801F478
:1017400000310091019901310191009919B9019974
:10175000B1F5A06FF2D10168890354BF00210121C6
:1017600000910099012934D142F20001C4F2020132
:101770000A6842F010020A600A6822F003020A6056
:101780000A6842F002020A604168416041684160B3
:10179000416841F480614160416821F47C114160FD
:1017A000416841F4E8114160016841F080710160D5
:1017B00001688901FCD5416821F00301416041685D
:1017C00041F00201416000BF416801F00C010829AD
:1017D000FAD14EF60850CEF200004FF000610160E1
:1017E00002B0704740F27800C2F20000006844F690
:1017F000D351C1F26201A0FB01014FF0FF3000EBB9
:1018000091110020B0EB116F18BF70474EF210021B
:10181000CEF2000251604EF62351CEF20001F023C9
:101820000B70906007201060704745F60041C4F2CD
:10183000000151F8202040F60F731A4048F2C0030F
:101840001A4341F82020704770474FF48020FEF77C
:1018500073BF002840F60000C4F201004FF40041BD
:1018600008BFFFF79DB8FFF79DB8FEF7AFBD40F288
:10187000101040F2E401C2F20000C2F20001016067
:101880000220087240F2141040F22401C2F200005B
:10189000C2F20001016040F21810096840F27C02B7
:1018A000C2F20000C2F200020260084770B545F6BD
:1018B0004444C4F20004206840F28625C2F20005C8
:1018C00040F284262880C2F2000629883088014030
:1018D000090402D5FEF7C8FD308829880840400574
:1018E00058BF70BD4FF6FF30206040F22400C2F2B6
:1018F00000004068BDE870400047FFF7D7BF45F6DD
:101900004041C4F200010020486040F28420C2F24D
:1019100000004FF40442028000200A60704770B556
:1019200000F07F06304614460D46FFF770F8A4B26B
:1019300001462846224600F009F830462146FFF7C6
:101940005BFB002070BD0000FEE7000001320023B9
:10195000B3EB520F08BF704746F20003C4F2000316
:10196000520803EB410100BF30F8023B013A21F875
:10197000043BF9D170470000F0B542F21C0442F27A
:10198000040CC0F60004C0F6000C40F2000E2578EE
:101990009CF80010C2F2000E9EF800204819104476
:1019A000642884BF4FF0FF30F0BD41F6EE76C0F6FC
:1019B000000640F22810B768C2F20000002303803E
:1019C000C0F8027041F6CE77B389C0F60007B7F8C9
:1019D0000770C3801C237688078143819423868106
:1019E0008373A5F16C03C57303740B444174837452
:1019F000C27475B1012D00F1150305750BD00134CA
:101A0000013D00BF14F8016B013D03F8016BF9D1F2
:101A100001E000F1140369B1012903F8011B09D0A9
:101A20000CF10105013900BF15F8017B013903F8FC
:101A3000017BF9D17AB11946012A01F8012B01D1B4
:101A40000B4608E0012100BF1EF801705F54013110
:101A50009142F9D30B4440F20231C0F20101196006
:101A600003F1080144F252520F1AC4F256227D2F9C
:101A70005A6006DC002200BF01F8012B0B1A7E2BF6
:101A8000FADB42784AF6AA23CFF6FF7383EA0222F2
:101A900093B2520042EAD332002300BFC7187F88B6
:101AA00087EA0205AAB26F0047EAD2321F1D02334D
:101AB0007E2FF3D3E8090A7048700020F0BD40F291
:101AC0002811C2F20001085A7047000048F21814A9
:101AD000C4F22124FFF755F9FEF793FEFFF71FF834
:101AE000FEF730FEFFF77EFE40F20C10C2F200005F
:101AF0000026067040F2A000C2F200004FF001087C
:101B000080F8008040F22010C2F20000066040F22F
:101B10001F10C2F2000040F2302180F80080C2F2B3
:101B2000000146F2010040F2702B40F2241940F20D
:101B30001E1740F2AC1540F2A81A0880C2F2000B42
:101B400040F2F011C2F20009C2F20007C2F2000531
:101B5000C2F2000AC2F2000158464022C9F80060F1
:101B60003E702E60CAF8006000F0E1F9FFF77FFEDA
:101B700040F20810C2F2000000680528F8D140F2D7
:101B80000C10C2F20000007888B3DAF8000029686F
:101B900088422CD10220FEF707FF40060AD402201B
:101BA000FEF719FF074640F2B010C2F200004FF4F2
:101BB000A07109E00220FEF7FFFE074640F2B010D8
:101BC000C2F200004FF480713A46FFF771F840F21C
:101BD0000C10C2F200002F60CAF8006006700220EC
:101BE0000121FEF7F7FD40F21E17C2F20007DAF8F6
:101BF00000002968884280F00F8100BF584600F03D
:101C0000B8F9002840F00881DAF8000040F2B0127C
:101C1000D9F80010C2F20002105C002942D03A78D4
:101C2000002A6BD0A16FE067002900F09780214661
:101C300051F8082FD20142EA5000C1F88480C1F85F
:101C4000846048670A68C1F88480D20142EA500083
:101C5000C1F8846048670A68C1F88480D20142EA0A
:101C60005000C1F8846048670A68C1F88480D201D6
:101C700042EA5000C1F8846048670A68C1F884806D
:101C8000D20142EA5000C1F8846048670A68C1F88E
:101C90008480D20142EA5000C1F8846048670A6833
:101CA00094E000BF42B2C0F38011B2F1FF3F39703F
:101CB00040F3AF80C0F30012E267C0F34002C4F803
:101CC000842000F00102C4F88C20C0F380020029B7
:101CD00040F2B4116267C0F3C00228EA5010C4F2A7
:101CE0002221A267086000F08A80A068216840EA8B
:101CF0004100C1B2584600F044F980E04208E06774
:101D0000C4F88C80C4F88C60E2678208C4F88C80C8
:101D1000C4F88C60E267C208C4F88C80C4F88C6098
:101D2000E2670209C4F88C80C4F88C60E26742095B
:101D3000C4F88C80C4F88C60E2678209C009C4F8DA
:101D40008C80C4F88C60E267C4F88C80C4F88C6026
:101D5000E067C4F88C80C4F88C604DE02168C4F85A
:101D60008C80C90141EA5000C4F88C60E0672168AA
:101D7000C4F88C80C90141EA5000C4F88C60E06767
:101D80002168C4F88C80C90141EA5000C4F88C6015
:101D9000E0672168C4F88C80C90141EA5000C4F8AA
:101DA0008C60E0672168C4F88C80C90141EA50006A
:101DB000C4F88C60E0672168C4F88C80C90141EAEE
:101DC0005000C4F88C60E06722682146D20142EAE4
:101DD0005000C4F88C80C4F88C60E0670968C4F8CF
:101DE0008C80C90141EA5000C1B25846C4F88C60E9
:101DF00000F0C7F8D9F80010481EC9F80000DAF85A
:101E00000000296801308842CAF80000FFF4F6AEED
:101E100002E000F03F00F0E740F2A000C2F2000054
:101E2000007800283FF4A4AE584600F0BDF83E28E4
:101E300001D93E2726E0074620BB40F2802040F231
:101E40002011C2F20000C2F2000100680968401AC5
:101E5000092801D9002715E040F21F10C2F2000046
:101E6000007840F21E1740F2AC150128C2F20007BC
:101E7000C2F200057FF47CAE40F21F100027C2F2D0
:101E80000000077040F28020C2F20000006840F2BB
:101E900020115D4640F2302BC2F20001C2F2000B6D
:101EA00008600BF1020128463A4600F017F840F2AC
:101EB000A000C2F200000670BA1C81205946AB4651
:101EC000FFF72DFD0120FFF7BDF840F21E1740F28D
:101ED000AC15C2F20007C2F2000549E6F0B581B0C8
:101EE000054614460E46EA68D5E901310068891AAC
:101EF000A14238BF0C46591E11405F1ABC4298BF20
:101F00002746014430463A46FEF718F92968F01989
:101F1000E21BFEF713F9D5E9021020448142E86084
:101F200004BF0020C5E90200204601B0F0BD80B525
:101F30004FF0553303EA5203A2EB030C4FF0333357
:101F400003EA9C0E2CF0CC33734403EB131323F001
:101F5000F03C4FF001330CFB03FC0123B3EB1C6F8F
:101F60004FF0000302BF80E80E00C3600123184653
:101F700080BD021D07CA891A081AB0FA80F040090C
:101F80007047C268D0E9013CACEB02029A4204BF40
:101F9000002070470268013B03EA0C03D1548168BA
:101FA0000131816001207047D0E90210081A7047A2
:101FB00002E008C8121F08C1002AFAD17047704712
:101FC000002001E001C1121F002AFBD17047090265
:101FD000200001010080E10904000002FFFFFF0072
:101FE00007058102400001070502024000011201BD
:101FF000000200000040FB0901600004010203012F
:102000000403090418035500530042002D00420048
:102010006C00610073007400650072000E034100E3
:102020006C00740065007200610000005020000820
:1020300000000020E0000000B01F00083021000870
:10204000E0000020A8050000C01F000800000000FC
:10205000120330003000300030003000300030001B
:1020600030000000CE1F000820000000EE1F000816
:1020700012000000570200089D020008BF0300087C
:10208000C103000885010008830200082F02000830
:10209000FF010008F30100080B0200080000000027
:1020A00040000000030100000020000804000000C0
:1020B0001C2000080E00000004200008180000008A
:1020C000000000201200000000A24A041D0B0008BE
:1020D000950300081D0B00081D0B00081D0B0008D0
:1020E0001D0B00081D0B00081D0B0008B1030008A4
:1020F000010000001D0700081D0B00081D0B000853
:102100001D0B00081D0B00081D0B00081D0B00080F
:102110001D0B00082B0700081D0B00081D0B0008F5
:102120001D0B00081D0B00081D0B0008000000001F
:0400000508000105E9
:00000001FF
