:020000040800F2
:10000000204A002065010008311600080D14000880
:10001000BD1500085D060008E12A00080000000088
:100020000000000000000000000000002F1C00087D
:1000300033100008000000009B1800087B25000812
:100040007F0100087F0100087F0100087F01000890
:100050007F0100087F0100087F0100087F01000880
:100060007F0100087F0100087F0100087F01000870
:100070007F0100087F0100087F0100087F01000860
:100080007F0100087F0100087F0100087F01000850
:100090005F0600087F0100087F0100087F0100085B
:1000A0007F010008572800087F0100087F01000831
:1000B0007F0100087F0100087F0100087F01000820
:1000C0007F0100087F0100087F0100087F01000810
:1000D0007F0100081D2900087F0100087F0100083A
:1000E0007F0100087F010008792A00087F010008CD
:1000F0007F0100087F0100087F010008FFFFFFFF6C
:100100007F010008000000007F0100087F01000857
:100110007F0100087F0100087F0100087F010008BF
:100120007F0100087F0100087F0100087F010008AF
:100130007F01000800000000000000007F010008AF
:10014000810600087F0100087F0100086D2A000871
:10015000DFF80CD000F054F900480047B938000827
:10016000204A00200648804706480047FEE7FEE791
:10017000FEE7FEE7FEE7FEE7FEE7FEE7FEE7FEE757
:10018000812500085101000800487047B47000083C
:10019000A0F16101192900D820387047A0F1410170
:1001A000192900D82030704740EA01039B0703D08B
:1001B00009E008C9121F08C0042AFAD203E011F8A6
:1001C000013B00F8013B521EF9D27047D2B201E068
:1001D00000F8012B491EFBD270470022F6E710B54C
:1001E00013460A4604461946FFF7F0FF204610BDA5
:1001F00030B505462A460B4612F8010B13F8014BA1
:1002000008B1A042F8D01CB1002802D06D1CF1E763
:10021000284630BD10B5044604E00B7800F8013BD9
:1002200003B1491C521EF8D2204610BD421C10F8E2
:10023000011B0029FBD1801A7047000070B50F4DDB
:1002400000B92868002412E00A4602E09E4203D06A
:10025000521C1378002BF9D1DAB2224305D02BB10E
:1002600024B1002100F8011B04E00446401C06787C
:10027000002EE9D12860204670BD0000000000205B
:100280002DE9F04791460F4680460446002614F8B3
:10029000015B2DB1FFF778FF0068405DC007F6D124
:1002A0002B2D02D02D2D18D0641E4A4639462046EB
:1002B00000F057F827B13968A14201D1C7F8008092
:1002C00071054FF002040BD54042002803DD06F013
:1002D0009DFE0460A007BDE8F08746F48066E4E771
:1002E0000028F8DA06F092FE04606FF00040F2E7B2
:1002F0002DE9F05F93460F4680460446002606F03F
:1003000085FED0F80090824614F8015B2DB1FFF70E
:100310003BFF0068405DC007F6D12B2D02D02D2D8C
:100320001AD0641E0021CAF800105A4639462046E9
:1003300000F017F8014627B13868A04201D1C7F88C
:100340000080DAF80000022809D0CAF80090700591
:1003500005D54842BDE8F09F46F48066E2E70846CE
:10036000F8E72DE9F05F82460078002715468B46B6
:100370000AF10104B946302801D09DB113E014F808
:10038000010B0127782803D0582801D045B10AE095
:100390000DB1102D07D10027102514F8010B02E034
:1003A000082500E00A250026B0460EE005FB0800FF
:1003B00005FB06F1012701EB10461FFA80F8B6F5A0
:1003C000803F00D3B94614F8010B294600F02AF803
:1003D0000028EBDABBF1000F05D00FB1641E00E07E
:1003E0005446CBF80040B9F1000F06D006F00EFEDF
:1003F00002210160C81EBDE8F09F48EA0640FAE706
:10040000064C074D06E0E06840F0010394E8070061
:1004100098471034AC42F6D3FFF79EFE8C7B000861
:10042000AC7B00083A2800D2303820F02002412A64
:1004300001D3A2F13700884201D34FF0FF3070475B
:1004400030B58C1810F8012B12F00F0301D110F801
:10045000013B120906D110F8012B03E010F8015BF3
:1004600001F8015B5B1EF9D101E001F8013B521E6E
:10047000FBD1A142E6D3002030BD00002DE9F04FB2
:1004800081B000284BD00C4600294FF0000647D021
:1004900001780546002943D04FF000084FF05C0971
:1004A0004FF00A0A4FF00D0B092700265C2905F1D1
:1004B00001000BD1017871290EDCE1B15C291DD05E
:1004C0006E2906D104F801AB20E000BF04F8011B3F
:1004D000013605461CE000BF722912D0742913D0E2
:1004E0007829F6D1A878E97802F01CF804F8010B15
:1004F000013604350CE004F8018B07E004F8019B99
:1005000004E004F801BB01E004F8017B0136023588
:10051000402E05D824B129780029C7D100E0002653
:10052000F0B201B0BDE8F08F42F60C40C2F200001C
:10053000D0F808240023B3EB922F10D1D0F8002478
:1005400000F2FF331170D0F800144A1C9A4288BFA1
:10055000A1F2FF3200F58161C0F8002401E000F251
:100560000C410A6801320A60D0F8080480B2704772
:1005700010B50446D0F8010047F2D22144F8410FEB
:10058000C0F6000134F83C0C0988A08008BA000CC1
:10059000E08043F22000C2F200004189090A217282
:1005A000418961728189090AA17280890E21E072F4
:1005B0000020A081204601F003F8E08110BD00007A
:1005C000B0B5B0F80110054620F8411F4FF2E873AE
:1005D000811C0022C1F6FF73D45C8C5401320C2ABA
:1005E000FAD10E2100F0ECFFA5F84F00B0BD10B518
:1005F0000446D0F8010044F8410F34F83D0C14F8DB
:100600003B1C00BA042928BF0421020C01EB104056
:10061000C1F13E013E2888BFCAB240F24C01C2F28D
:10062000000134F83C0C0968A08001EB42004378DB
:10063000A37111F81210E171C17821728178617291
:100640004179A1720179E172C179217380790E211A
:100650006073204600F0B4FFE08110BDFEE780B576
:1006600046F20040C4F200004CF2810102F061FE4B
:10067000012818BF80BD0020BDE8804000F0E0BB2D
:1006800080B546F60000C4F200004CF2810102F091
:1006900050FE012818BF80BD0120BDE8804000F059
:1006A000CFBB062947F2B80C88BF0221C0F6000C68
:1006B00040B13CF831300CEBC10203829378928850
:1006C000837482820CEBC100C08840EA014070470D
:1006D0002DE9F04381B000F0010642F60440C2F279
:1006E000000050F82650286802F087FC05F120042D
:1006F000002021464FF0000802F046FE4FF0012096
:1007000068624FF48070288543F22000C2F2000036
:1007100000EB46067089C0F3011085F82000F089CF
:1007200000F01F01204600F0CCFA2868214602F0B4
:100730004FFD05F12C040220214602F025FE7089B0
:10074000C5F8388000F0010085F82C0040F2011057
:10075000A5F82D0040F20440A5F84800284640F8CE
:10076000448FC5E90C08F089C0F302212046FFF749
:1007700098FF2868214602F053FC40F24C0905F12D
:100780004C04C2F200090126002700BFD9F800007E
:10079000A5F85670818A06FA07F2114018BF0121A8
:1007A000A5F85810C18A114018BF0121A5F85A10A8
:1007B00000EBC7010B8C008BA5F84C304B8C104024
:1007C000A5F84E308A8C18BF0120A5F85020C98C9E
:1007D00085F85C002046A5F85210A5F8548002F078
:1007E0009EFC0137082FD1D1042002F0EFFB2868CE
:1007F000022101B0BDE8F04302F097BD03288FBF8E
:1008000002A000B203A151F820007047556E6B6E34
:100810006F776E004174000838740008487400084F
:100820003174000847F2F2020021C0F6000200BF56
:1008300002EBC103DB88834204D001311629F7D1D2
:10084000052102E0162928BF052102EBC100C0885E
:1008500040EA0140704700002DE9F04F87B042F6B2
:10086000044400F0010BC2F2000454F82B80029003
:10087000D8F80C90D9F874000128C0F246810D46D2
:1008800043F220020299C2F2000202EB41000A3058
:100890000390C801059005F14700049041F22450EF
:1008A00005F1410648440690CDF804B0108900F4E3
:1008B0004050B0F5805F13D154F82B0095F8C11269
:1008C000C068406E85F84110417B022951D0002953
:1008D0005AD1017B042952D0002955D1302151E051
:1008E000108900F44050B0F5005F23D154F82B106C
:1008F000C868406E427B002A40F08280096846F258
:100900000042C4F2000291427AD1017B002977D1E2
:1009100040F24C01C2F2000109684268498B6FF352
:10092000DF218A426CD1C17B012969D1007C06F0AC
:1009300009FA65E054F82B00C1680398D1F864A067
:10094000008880055CD59AF80D209AF80C00002AE2
:1009500000F082808A6E0821002808BF042175A05B
:100960005AF801306BA108BF0846029906F0DAF97F
:10097000C1E0017B042904D031B9402102E05021BB
:1009800000E0602185F84210C17B059B95F842206C
:100990001943114385F84210017B002914BFC17A25
:1009A000002185F84310017B002914BF41890021F3
:1009B00085F84410017B00294FF0080108BF04218D
:1009C0004158090A85F84510017B00294FF00801BC
:1009D00008BF04214158049A85F84610D0E9040163
:1009E0005160106030460E2100F0EAFD0027A5F8A6
:1009F0004F0000BFF05D06F0A5F90137102FF9D1C7
:100A0000D9F86400069A00F15401914241F2AC42D7
:100A100088BF811AD8F80000C9F86410022102F0DA
:100A20007FFCD9F8740002210138C9F87400D8F8A5
:100A3000000002F07AFCD9F868000130C9F86800BB
:100A400002F07EFED9F8740043F220020028C2F2C0
:100A500000023FF72BAF58E08A6E0821002808BF3C
:100A600004215AF8013047F206413AA0C0F60001CD
:100A70009AF80F7008BF08460299009706F052F9DD
:100A80009AF85100039C28B147F20340C0F60000D9
:100A900006F080F99AF80F0068B30AF1100B0027EE
:100AA00020881BF8071000050ED437A006F03AF98D
:100AB00007F00F000F2819D147F20340C0F60000DD
:100AC00006F068F912E000BFA1F12000C0B25E2874
:100AD00004D8084606F036F908E000BF5C2006F0AE
:100AE00031F91BF8071026A006F01CF99AF80F0040
:100AF00001378742D4D326A006F04CF9DDF804B0C4
:100B000042F60444C2F200047AE7D9F8680007B05C
:100B1000BDE8F08F20525825643A253038642052C1
:100B2000454D4F5445204D53472049443D3078258D
:100B30003034580020525825643A25303864205209
:100B4000454D4F5445204D53472049443D3078256D
:100B50003038580020525825643A253038642044F3
:100B6000415441204D53472049443D307825303889
:100B700058204C454E3D256420444154413D0000E1
:100B8000782530325800000025303258200000000F
:100B90000A00000070B582B0044600EB01100E465A
:100BA000D0F8B01111F004011173D0F8B01119BFD1
:100BB000C9089160490D5160D0F8B01101F00201EF
:100BC0005173D0F8B411090A82F85010D0F8B4115A
:100BD000C1F3C01182F85110236ADB0725D1002927
:100BE0005AD1D0F8B41101F00F01D173D0F8B81177
:100BF0001174D0F8B811090A5174D0F8B811090C61
:100C00009174D0F8B811090ED174D0F8BC111175D7
:100C1000D0F8BC11090A5175D0F8BC11090C9175B6
:100C2000D0F8BC01000ED07541E0D0F8B41101F04D
:100C30000F01092906D347F24823C0F600031944DF
:100C400011F8091CD173D0F8B4310D1FC3F3401350
:100C500082F85230D0F8B431C3F3001382F8533025
:100C60004FF0FF3303EB9103B3FA83F34FEA5313CF
:100C700018BF01252B4003EB91011032019291B175
:100C8000D0F8B821019B01391A60019A0B0602F1D4
:100C900004020192F4D10AE047F2E930C0F6000004
:100CA00006F078F803E0D0F8B80101990860102048
:100CB000002E08BF0C20215841F02001215002B025
:100CC00070BD152947F2F20C88BF0521C0F6000C53
:100CD00048B13CF831300CEBC102A0F801309378F8
:100CE0009288C37042810CEBC100C08840EA014089
:100CF00070470000F0B581B082680D46520107D4FC
:100D00008168090106D48168C90005D4032789E0F8
:100D1000002702E0012700E0022700EB0716D6F8C3
:100D2000801101F00101C6F88011297A19B16A68B1
:100D300041EAC20201E029684A056B7A95F84E1033
:100D4000D6F880411A432243C6F8802149B1006A8F
:100D5000C0071BD147F2E930C0F6000006F01AF8D0
:100D60005AE0D6F8840120F0BF00C6F88401687B01
:100D7000D6F884110843C6F88401D5F80E00C6F8E9
:100D80008801D5F81200C6F88C0145E0687B092877
:100D900001D2024613E047F248230022C0F60003C6
:100DA0009C5CA0420AD00132072AF9D11FA005F0AD
:100DB000F1FF687B95F84E10002200E0093295F8AB
:100DC0004F3095F8504042EA431242EA041242EA98
:100DD000C111C6F884114FF0FF3101EB9001B1FA57
:100DE00081F14909021F18BF0122114001EB900057
:100DF00005F10E01009158B1009901380968020609
:100E0000C6F88811009901F104010091F4D103E0C2
:100E100000980068C6F88801D6F8800140F001000B
:100E2000C6F88001384601B0F0BD00BF646C656E45
:100E300020697320696E76616C69640A00000000A5
:100E40002DE9F04F81B042F60441834600F00100E5
:100E5000C2F2000151F820502868EE68C168890785
:100E60003FD041F2245106EB010943F22001C2F2C6
:100E7000000101EB8B0202F5BA770BEB0B1201EBD1
:100E8000C20106F1700806F16C0A01F1140400BFFA
:100E9000716F3F2914DC326E0021FFF77BFE306E4C
:100EA000716F00F1540280F80EB04A4541F2AC4334
:100EB00088BFC21A481C32667067504604E000BF03
:100EC000002102F01FF940460168013101603868D5
:100ED000013038602068013020602868C1688907C7
:100EE000D6D101B0BDE8F08F80B540F2045002F0D9
:100EF00098FE40F2025002F094FE4FF4C06002F0FF
:100F000081FE40F2026002F07DFE40F2036002F0DA
:100F100079FE40F2046002F075FE40F21C7002F0AF
:100F200071FE40F20C5002F06DFE40F2197002F0BA
:100F300069FE40F21A7002F065FE40F20E6002F0A7
:100F400061FE40F20B6002F05DFE44F21861C2F2F5
:100F500000014FF400024FF400000A60BDE8804039
:100F600002F08DBEB0B500F0010442F60440C2F2BA
:100F7000000050F824002146C5680020C5E91B0088
:100F8000C5E900000BA005F0CDFED5E91B2347F60F
:100F90004810C0F60000214605F0C4FED5E9002344
:100FA00047F65F10C0F600002146BDE8B04005F0EE
:100FB000B9BE00BF204348256420436C65617220A0
:100FC00052582F545820436F756E746572732E0AF1
:100FD00000000000B0B590F806C0BCF1040F28BFB7
:100FE0004FF0040CBCF1000F08BFB0BD8188CCF1FC
:100FF0003E0209BA4FEA114E0CEB0E013E2940F2B7
:101000004C01C2F2000188BF5FFA82FE0B68002229
:10101000002100BF00EB4204B4F80740013124BABC
:1010200002EB0E058AB2240C944523F81540F1D842
:10103000B0BD704743F22001C2F20001D1F828216F
:10104000D1F828319B1A834228BF704700BFF7E7C9
:10105000F0B581B04FF60047C0F600074FF6FF74B9
:1010600007F17C000021802207F17E03468842EAD6
:1010700003052D880EB9A54215D00131803008290D
:1010800002F18002F2D144F2D055C2F200050020F4
:10109000288002F0F9FA288807EBC01002F0BAFAAB
:1010A00002F0AFFA05E044F2D052C2F20002118021
:1010B0000488204601B0F0BD44F2D050C2F20000D6
:1010C0000188002201F0070101804FF60040C0F6C0
:1010D000000040EAC11040F24C01C2F20001096870
:1010E000835A8B520232802AFAD1B1F87C007047C1
:1010F00040F24C01C2F200010968C0B231F81000A0
:10110000704700002DE9F04144F2D055C2F20005CD
:10111000288840F24C08C2F2000800F00701D8F815
:1011200000004FF6004629803E21C0F6000600F080
:1011300063FAD8F80010A1F87C000020A1F87E0026
:1011400002F0A2FA28884FF6FF72411C01F0070155
:1011500029804FF4807101EBC01080B23043B0F8A9
:101160007E10914218BF02F055FA0027D8F800000F
:101170002A8850F8171006EBC21002F098FA3E2F9A
:1011800007F1020706F10406F0D3044602F039FA2B
:101190002046BDE8F08140F24C02C2F20002126823
:1011A000C0B222F81010704770B544F2146CC2F24D
:1011B000000CD0F83064BCF9001040291BDB44F26D
:1011C000126143F2A21406F14A020023C2F20001A6
:1011D000C2F20004B1F90050655DD5540D880133A9
:1011E00001356FF3DF25402B0D80F3D1BCF80010E3
:1011F0004023403923E0BCF9001001291CDB44F2F4
:10120000126343F2A21E0021C2F20003C2F2000EDA
:10121000002200BFB3F9004031441EF804400132FF
:1012200081F84A40198801316FF3DF211980BCF938
:10123000004091B2A142EDDBBCF800300021ACF8D7
:10124000001006F14A028121BDE8704005F061B945
:101250002DE9F04381B0D0F83064804601207070F1
:1012600044F28420C2F2000000240470B8F8D802CE
:1012700043F220090028C2F20009C6F88C003FD0D2
:1012800044F286250020C2F200050027002400BF9A
:10129000B9F8081001F44051B1F5805F06D130442F
:1012A000817A284600F0E0F924E000BFB9F8081080
:1012B000304401F44052817A2846B2F5005F03D1F0
:1012C000FFF732F916E000BF01F0DAF9B5F8C20213
:1012D00080B10020214600BF2A1892F841204C1C02
:1012E00016FA81F181F84A20B5F8C212013088421D
:1012F0002146F1D30137D6F88C10B8B28142C7D855
:10130000B9F8080010F4405F06D106F14A02A3B212
:101310004046812105F0FDF806F10A02404603210E
:10132000402301B0BDE8F04305F0D9B87047B0B52F
:1013300040F60004C4F201042046182101224FF4B3
:10134000007302F019FA2046482101224FF480630D
:1013500002F012FA04F580652846102102222023AB
:1013600002F00AFA2846482103224FF4807302F063
:1013700003FA2846182103224FF4007302F0FCF907
:101380004FF4EA10012102F056FA284610210222F9
:101390004FF4006302F0F0F92846482103224FF48D
:1013A000805302F0E9F92846182103224FF4005334
:1013B00002F0E2F92046182103224FF4006302F004
:1013C000DBF92046182103224FF4805302F0D4F9B0
:1013D00004F50060102102224FF4005302F0CCF912
:1013E0002046482101224FF4807302F0C5F92046BF
:1013F00010210322012302F0BFF92046102103220D
:101400000423BDE8B04002F0B7B90000FEE70000D9
:10141000F0B581B00C46054600266FF02F0700BFDF
:10142000A85DFEF7B5FE57FA80F10A2902D2D02155
:1014300005E000BFC1B24139052910D8C921F20722
:10144000014403D10901700803E000BF7008225C69
:1014500011430136802E2154E2D1402001E0F0B248
:10146000400801B0F0BD80B540F60000C4F20100B4
:101470004FF4807102F0DAF943F2A011C2F20001D8
:101480000B8830B1D8087C284FF0000209D902201F
:101490000BE04FF47A720020B3F57A7F38BF5A1C04
:1014A00003E00020632B88BF01200A8080BD10B5B7
:1014B00040F24C04C2F200042068382100F09CF88D
:1014C00008B1002010BD216843F22000B1F860206F
:1014D000C2F20000C2800A8802818A89C281CA8958
:1014E00002820A8A4281498A8181018901F440513C
:1014F000B1F5405F03D1018921F44051018147F2E8
:10150000D4120189C0F600021278C1F3032191427E
:1015100005D3018921F4706101F5407101810289CF
:101520004FF0FF3344F2862153FA82F3C2F20001F6
:10153000F72B81F8C12208D3028942F0010222F080
:10154000FE020281012281F8C12247F2A211C28962
:10155000C0F60001097802F01F028A4205D3C28951
:1015600042F0050222F01A02C28147F2F002C3895A
:10157000C0F600021278C3F30223934205D3C38955
:1015800023F4E06303F50073C381038A03F01F03B0
:101590008B4205D3018A41F0050121F01A01018235
:1015A000018AC1F30221914205D3018A21F4E0614D
:1015B00001F5007101824FF0FF3010BDFEE7000021
:1015C000B0B54FF6FF72A9B14FF0000C4AF2010E10
:1015D00010F80C305A4000238EEA5204D50708BF99
:1015E00054082246072B03F10103F5D30CF1010C3B
:1015F0008C45EDD190B2B0BDB0B54FF6FF72A9B138
:101600004FF0000C4AF2010E30F81C305A40002313
:101610008EEA5204D50708BF54082246072B03F16F
:101620000103F5D30CF1010C8C45EDD190B2B0BDA6
:10163000704780B54FF4A06002F0EAF94320012121
:10164000002202F0B3F914200221012202F0AEF9C7
:1016500040200221022202F0A9F9252003210122C3
:10166000BDE8804002F0A2B9F0B581B0044643F273
:101670002000C2F200000025C0F82851B4F8C422AE
:1016800000203F2A15D8A0184170B4F8C4020128E0
:1016900008D048B994F8C102401AB0FA80F0450960
:1016A000002006E0022504E0052888BF0D2804D8A4
:1016B000451CA4F8C45201B0F0BD0E2836D00F2846
:1016C00040F08880651C28461021FFF779FF00282C
:1016D00040F08080A07800F0700130390A09032AB8
:1016E00026D842F60441C0F3C010C2F2000151F8FE
:1016F0002000C168DFE802F0023A5157B4F8052033
:101700000025120412BA41F80C2F0D81A27802F0C4
:101710000F024A73D4F80B20D4F80730C1F8122016
:10172000C1F80E300068FFF7E5FAB9E70F25C0E70A
:1017300000F00F00013808284CD8DFE800F0054D14
:101740005D6164966777870004F14106304629465B
:101750001022FEF729FD00270025F05D05F0F2FAC2
:101760000137102F4FF00000F7D1A2E7B4F80520A1
:10177000120412BA41F80C2F4FF400720A81A278B9
:1017800002F00F024A73D4F80B20D4F80730C1F8E6
:101790001220C1F80E3000681AE0D4F8032012BA03
:1017A0000A61042205E0D4F8032012BA0A614FF45A
:1017B00001728A82A27802F00F024A76D4F80B20D6
:1017C000D4F80730C1F81E20C1F81A3000680C3177
:1017D000FFF790FA002563E72046FEF708FF04F1C3
:1017E000410600270025F05D05F0ACFA0137102F07
:1017F0004FF00000F7D15CE72046FFF7EBFBE9E78D
:10180000FFF75AFCE6E7FFF77DFCE3E72046FEF72B
:10181000AFFE04F1410600270025F05D05F092FAC5
:101820000137102F4FF00000F7D142E72046FEF7B6
:10183000C7FE04F1410600270025F05D05F082FA9D
:101840000137102F4FF00000F7D132E7E0794FF465
:101850000051002841F20000C4F2010002D001F062
:1018600087FFB7E701F086FFB4E7012080F3138814
:1018700001F0D4F943F22001C2F200010A8902F416
:101880004052B2F5805F18BF7047D1F82811652922
:1018900024BF0021A0F8C4127047704710B5002083
:1018A00002F02EF9014614A005F03CFA012002F0E6
:1018B00027F9014615A005F035FA022002F020F9BB
:1018C000014617A005F02EFA032002F019F901468F
:1018D00018A005F027FA43F22004C2F20004D4F85D
:1018E000281119A005F01EFAD4F82C111BA0BDE890
:1018F000104005F017BA00BF20434B5F53595320E7
:1019000020203D20256C640A0000000020434B5F2E
:101910004148422020203D20256C640A0000000040
:1019200020434B5F4150423120203D20256C640A0A
:101930000000000020434B5F4150423220203D20F8
:10194000256C640A00000000205449434B202020ED
:1019500020203D20256C640A0000000020535441E3
:101960004D50202020203D20256C640A00000000FE
:101970002DE9F04743F2200AC2F2000A9AF8240146
:1019800000EB00100AEBC000068B1CA005F0CAF9A2
:1019900047F6CD1800270FF26C09C0F600080024A6
:1019A000002500BF9AF82401F11900EB001001F0A6
:1019B0003F010AEBC00000EB4100418B4846A142C9
:1019C00038BF0C46A94288BF0D4605F0ABF907F0B9
:1019D0000700072802D1404605F0DCF90137402F07
:1019E000E0D10AA005F09EF99AF8241117A022462A
:1019F0002B46BDE8F04705F095B900BF4F6C646514
:101A000073740A0025366420000000002020202086
:101A100020202020202020202020202020202020C6
:101A200020202020202020202020202020202020B6
:101A300020202020202020202020202020202020A6
:101A400020204E65776573740A00000043414E25DF
:101A500064205258207370656564206174206C6145
:101A60007374203634207365636F6E64732E204D5B
:101A7000494E3D2564667073204D41583D2564668E
:101A800070730A0010B540F24C04C2F200042068E2
:101A90006E21FF22FEF79AFB43F22001C2F2000101
:101AA0000020C880CA8842F00102CA80CA8822F099
:101AB0000202CA80CA8822F00402CA80CA8842F0A0
:101AC000100222F02002CA80CA8822F4407202F575
:101AD0000072CA80CB8822680124A2F86030088195
:101AE0000B8943F0010323F0FE030B810B8923F4E0
:101AF000706303F540730B810B8923F440530B8112
:101B00000B8964F39F330B810B891380C881CB89C8
:101B100043F0050323F01A03CB81CB8923F4E06360
:101B200003F50073CB81CB890B82CB8993810B8A20
:101B3000D38148814B8943F001034B814B8923F0CA
:101B400002034B814B8943F004034B814B8923F003
:101B500030034B814B8923F480734B814B8943F4D1
:101B600000734B814B8923F480634B814B8923F4B1
:101B700000634B814B898B814B8913828989A2F841
:101B80006C0051820021CFF6FF7151611121C0F22A
:101B90008701916145F2FF41D1831E21C0F21401FA
:101BA000916602F120004021FEF717FB10BD10B531
:101BB00090F8CE10032938D143F6A411C2F20001E7
:101BC0000A680132052A0A602FD300220A6040F217
:101BD0005001C2F20001096839B344F2DC54C2F288
:101BE0000004217809BB44F2126C44F21662C2F27E
:101BF000000CC2F20002BCF8003011888B4214D0F5
:101C0000B2F90010BCF9003012889942BCF80010FB
:101C1000B8BF02F50062511A44F21462C2F2000227
:101C20001180FFF7C1FA01202070002010BD70471D
:101C300010B543F2200140F24C04C2F20001C2F29E
:101C40000004CA882068A0F860200A890280CA8936
:101C500082810A8AC2814A89028289894182372126
:101C6000FFF7CAFC2168A1F86E00BDE81040FFF73D
:101C700049BA00002DE9F04F8BB043F2200A00F082
:101C8000010442F60440C2F2000AC2F20000DAF88F
:101C9000288150F82490D9F80000D9F80CB0C06918
:101CA000B0F1FF3F40F32A8100278AF825710AEB43
:101CB0008401D1F84431012BC0F25E810AEB0400AB
:101CC00000F5BF7200F5B870049206900AEB44006C
:101CD0000A3042F60046099001F5A6700BF10C059A
:101CE000C4F201060A900BF11A00089005910793BF
:101CF00001F026FD30460021CAF82C7103F00CFCDF
:101D0000D9F800002946FEF7F5FF0746304603F0F4
:101D100001FCB0F57A7F00F20781032FF0D0CDF8F7
:101D20000C809AF824010AEB4000408940050ED44B
:101D3000D9F80000394601F07DFBDAF82C11804615
:101D4000B1F57A7F00F2FA80B8F1010FF0D143F6D5
:101D5000A812C2F2000232F81400013081B2032945
:101D600022F8140009D343F6A810C2F200000321A0
:101D700020F81410049800210170069801210170C8
:101D800009980088DDF80C80800569D59BF815104E
:101D90009BF8140079B110210028DBF8002008BF5F
:101DA0000C21A2A05BF8013098A108BF084621468B
:101DB00004F0B8FF54E010210028DBF8002008BF31
:101DC0000C2147F600205BF8013047F6D511C0F62C
:101DD00000009BF81970C0F6000108BF08462146B4
:101DE000009704F09FFF9BF85A0028B147F2034088
:101DF000C0F6000004F0CEFF9BF8190080B3002766
:101E00000998008808990005C95D11D447F6CF10DC
:101E1000C0F6000004F086FF07F00F000F2819D16C
:101E200047F20340C0F6000004F0B4FF12E000BF28
:101E3000A1F12000C0B25E2804D8084604F082FF59
:101E400008E000BF5C2004F07DFF0898C15D7FA022
:101E500004F068FF9BF8190001378742D0D300BF18
:101E600047F6CD10C0F6000004F094FF09980088F2
:101E7000C00505D5DBE9030101300131CBE90301E0
:101E8000DBF800000130CBF800009AF825010028AB
:101E90006ED10A9942F211720868904219D3002754
:101EA000DAF82C01096864225043884220D2DAF81B
:101EB0002C0148F29F61C0F20101884218D801F05C
:101EC0003FFC9AF825010A990028E9D08AF8257183
:101ED0000EE00868002758B1304603F01BFB0A9952
:101EE0000968884204D2DAF82C01C828F4D300BF6C
:101EF000079B0599013B3FF7FAAE3DE033A004F0A4
:101F000049FF0AEB440041894089C1F30115C0F340
:101F10000110FEF773FC034638A021462A460BB099
:101F2000BDE8F04F04F0FEBE47F64600C0F60000E4
:101F300039460BB0BDE8F04F04F0F4BED9F800000C
:101F4000394601F059FA47F62D00C0F60000414627
:101F500004F0E8FE04990120087043F6A81100205F
:101F6000C2F2000121F8140006990220087029E04D
:101F700000208AF82501059901F5A27001686529FC
:101F800020D3DAF8281102684FF47A73A1EB080124
:101F90005A43B2FBF1F702689BF8140047F6B023EE
:101FA00047F64D26C0F60003002847F26770C0F6DA
:101FB000000608BF33460091C0F600002146019795
:101FC00004F0B0FE0BB0BDE8F08F00BF2057617287
:101FD0006E696E673A2043616E206E6F7420736580
:101FE0006E64206D736720756E6465722053696C32
:101FF000656E74204D6F64652E0A0000204D4F44BD
:102000004525643D25642025730A00002054582589
:10201000643A253038642052454D4F5445204D5385
:10202000472049443D307825303458002054582505
:10203000643A253038642052454D4F5445204D5365
:10204000472049443D3078253038580078253032D3
:102050005800000070B586B000F0010442F604405C
:10206000C2F2000050F824002146056847F66000DF
:10207000C0F600002A4604F055FE2A682DA021462D
:1020800004F050FE6A6831A0214604F04BFEAA68B5
:1020900034A0214604F046FEEA6838A0214604F048
:1020A00041FE2A693BA0214604F03CFE6A693FA03C
:1020B000214604F037FEAA69A869A969030EC1F395
:1020C000074CA969A869C1F30211C0F3800EA86981
:1020D000AE69C0F34000CDE902E047F6B70006F074
:1020E0000106CDE900C1C0F600002146049604F0C7
:1020F00019FEEA69E869E969C30FC1F3807CE969FF
:10210000EE69E869C6F30256ED69C0F30340C1F316
:102110000161CDE9026047F605106FF39F25CDE917
:1021200000C1C0F600002146049504F0FBFD06B096
:1021300070BD00BF2043414E25645F43544C2020B6
:10214000203D30782530384C580A00002043414E5D
:1021500025645F5354415420203D30782530384C5D
:10216000580A00002043414E25645F5453544154A3
:10217000203D30782530384C580A00002043414E2D
:1021800025645F524649464F303D30782530384C03
:10219000580A00002043414E25645F524649464F8D
:1021A000313D30782530384C580A00002043414EEC
:1021B00025645F494E54454E203D30782530384CDB
:1021C000580A000070B500F0010442F60440C2F263
:1021D000000050F824601BA0B288214604F0A2FD44
:1021E00043F22000C2F2000000EB4400C1894089A4
:1021F000C1F3022100F0010216A004F093FD96F84D
:1022000020502846FEF7FAFA024647F67B10C0F641
:102210000000294604F086FDF0682146D0E91B2322
:1022200047F64810C0F6000004F07CFDF068214637
:10223000D0E9002347F65F10C0F60000BDE870400B
:1022400004F070BD204348256420424155443D259B
:102250006C646B00204644424155443D25644D204A
:102260004644454E3D25640070B504461EA02146F7
:1022700004F058FD40F24C05C2F200052868012127
:10228000808A01FA04F61DA106421EA019A208BF09
:10229000114604F047FD28681EA1C08A1CA2064210
:1022A0001DA008BF114604F03DFD2868008BE040EA
:1022B00000F001011BA004F035FD286800EBC4000C
:1022C000018C408C40EA014118A004F02BFD2868E5
:1022D00000EBC400818CC08C40EA014116A0BDE82F
:1022E000704004F01FBD00BF2066696C74657220E9
:1022F0002564000069646D61736B000069646C693A
:1023000073740000204D4F44453D257300000000CC
:102310003136000033320000205343414C453D2507
:1023200073000000204143543D2564002052303D9D
:1023300030782530385800002052313D3078253033
:1023400038580A0010B582B043F22004C2F20004EB
:1023500094F86A1194F86E2194F8693194F86CC17C
:102360000BA0CDF800C004F0DDFCD4F85C11D4F86B
:102370006021D4F8643114A004F0D4FCD4F83C11EA
:10238000D4F840211BA002B0BDE8104004F0CABC44
:1023900020636D64496E427573793D256420636DD9
:1023A000644F75744C656E3D256420646174496E9C
:1023B000427573793D2564206461744F75744C6572
:1023C0006E3D25640A000000207573624F757443EA
:1023D0006E743D256C6420757362446174436E7441
:1023E0003D256C6420757362526570436E743D25A3
:1023F0006C640A0020636D64496E54696D65723DBA
:10240000256C6420646174496E54696D65723D2564
:102410006C640A00B0B543F22005C2F200052889B9
:1024200041F20004C0F30130C4F2010448B30228B1
:1024300070D0012818BFB0BD20464FF4005101F004
:1024400099F9D5F82801D5F82811091A632905D872
:1024500000BFD5F82811091A6429F9D320464FF492
:10246000005101F085F9D5F82801D5F82811091A8D
:1024700063294FD800BFD5F82811091A6429F9D368
:1024800048E020464FF4005101F074F9D5F82801D6
:10249000D5F82811091A632906D800BF00BFD5F85E
:1024A0002811091A6429F9D320464FF4005101F08C
:1024B0005FF9D5F82801D5F82811091A632905D83C
:1024C00000BFD5F82811091A6429F9D320464FF422
:1024D000005101F04FF9D5F82801D5F82811091A53
:1024E000632905D800BFD5F82811091A6429F9D342
:1024F00020464FF4005101F03BF9D5F82801D5F8FA
:102500002811091A632905D800BFD5F82811091A1E
:102510006429F9D320464FF40051BDE8B04001F0E2
:1025200029B9000010B5A0F16102D2B21A2A43F213
:102530001C02C2F2000238BF20381268A1F1610CFF
:1025400000235FFA80FE0020D45C744508BF00EBD6
:1025500003100133102BF7D15FFA8CF31A2B38BF1D
:1025600020390023C9B200BFD45C8C4208BF184494
:102570000133102BF8D1C0B210BD03F069BA0000CE
:102580004EF68851CEF200010A6841F2000042F492
:102590007002C4F202000A6001684FF6FF7241F057
:1025A0000101016000214160C1620168CEF6F6229E
:1025B000114001604FF47F018160016821F48021A6
:1025C0000160016841F4803101604FF6FE7100BF87
:1025D00003684A1E8A4203D213F400311146F7D031
:1025E0000168890301D400BFFEE742F20001C4F292
:1025F00002010A68032363F302020A6041684FF68E
:10260000FF7241604168CDF6C3724160416841F498
:102610008061416041681140416041684FF20002B1
:1026200041F0005141F454114160C16ACBF6FE7291
:102630001140C162C16A41F4843141F02901C16293
:10264000016841F08061016001680901FCD5016801
:1026500041F08071016000BF01688901FCD54168CB
:1026600021F003014160416841F00201416000BF77
:1026700041680907FCD54FF00060002101F0D2B994
:1026800070B5044600200D46A4F8C202FDF77CFD9B
:102690000068405D10F03E0F19D0B4F8C66201200A
:1026A000FF2EA4F8C20284F841501DD82846FDF739
:1026B00075FD711CA4F8C612A11981F8C10013E0C0
:1026C000B0F5807F24BF0020A4F8C20270BD1A2D8F
:1026D0001DDCA5F10800082825D8DFE800F0082E49
:1026E000052E2E462E2E7800B4F8C202E8E742F2FC
:1026F0000800A4F841000320A4F8C202B4F8C602FE
:102700000821002884F84310EED00138A0E01B2DEA
:1027100070D01D2D11D1B4F8C802411C0AB2012A93
:10272000C8BF411E6DE0032D07D143F22000C2F265
:102730000000012180F82511D6E743F21C00C2F207
:10274000000000682909415C0122A4F8C22284F833
:10275000411005F00F01405C84F842000320A4F80A
:10276000C202202084F84300BEE740F60D20A4F802
:102770004100B4F8C6020221FF28A4F8C21264D8AE
:1027800004F1C10100220A540120A4F8C6222070DD
:10279000B4F8C80200EBD03222F00102801A02B273
:1027A000A4F8C80243F68460C2F2000000EB4220A5
:1027B0004FF40072FDF72EFDB4F9C802013000EBB2
:1027C000D07121F00101401AA4F8C8028CE743F24D
:1027D0002000C2F2000090F8241100EB4100418972
:1027E000428901F4007122F40072114481F40071F5
:1027F000418179E7B4F8C802411E0AB2002A48BFF5
:10280000411C43F68465A4F8C81209B2C2F200055F
:1028100004F1C10005EB41214FF40072FDF7FAFC11
:10282000FDF704FDB4F9C812A4F8C60204F1410092
:1028300005EB41214FF40072FDF7ECFCFDF7F6FCCF
:10284000014680B2A4F8C2123AE7002084F8C00121
:10285000A4F8C60248E77047B0B584B042F6004419
:10286000C4F20104204602F059FE772000904FF692
:10287000FF700025029069462046ADF80450ADF87F
:102880000C508DF80E5002F0F2FE204602F0EAFEE7
:1028900040F20800C2F20000006841F25971CDF226
:1028A000B711A0FB01014FF0FF3000EB5130B0F148
:1028B000807F00D3FEE74EF21001CEF200014860A7
:1028C0004EF62350CEF20000F022027007208D60F9
:1028D000086004B0B0BD000047F2A4120021C0F6A9
:1028E000000200BF52F82130834203D901310C2984
:1028F000F8D10C21C8B2704747F2A4120021C0F6EB
:10290000000200BF52F82130834208BF70470131F6
:102910000C29F7D14FF4E1307047000010B582B0B8
:1029200043F600000021C4F20100ADF80610016872
:10293000090703D54168C9B2ADF8061001688906D8
:102940002CD544F28421C2F2000101220A7003F066
:10295000BFF9ADF8060043F22000C2F20000018981
:1029600001F44051B1F5805F09D1BDF80600C1B254
:1029700044F28620C2F20000FEF776FE0EE00089E7
:1029800000F44051BDF80600B1F5005F08D1C1B2B6
:1029900044F28620C2F20000FDF7C6FD02B010BD71
:1029A00044F28624C2F20004C1B22046FFF768FE5A
:1029B000002000BFADF80600BDF80600B4F8C21252
:1029C0008842EBD2BDF80600204490F8410000F0A8
:1029D0003FF8BDF806000130ECE7B0B543F2200047
:1029E000C2F20000008947F2A41143F60004C0F3CC
:1029F0000320C0F60001C4F2010451F82050204623
:102A000003F06AF92846FFF777FF0146204603F0F6
:102A10002AF92046002103F0B8F92046002103F0EE
:102A2000D0F92046002103F0BEF92046082103F02A
:102A3000C2F92046042103F0B0F9204640F20531E6
:102A400003F098F92046BDE8B04003F082B90000D9
:102A500043F60001C4F201010A681206FCD56FF3C7
:102A60005F20486008684006FCD5704743F6B01008
:102A7000C2F2000003F064BE80B543F6B010C2F2AB
:102A80000000C07968B1FFF77BFDFEF72DFA40F238
:102A90000C5001F0B7F843F6B010C2F2000003F09A
:102AA000F5F94FF48020BDE8804000F0A4BD40F26D
:102AB0004C01C2F200010968B1F87610A1F11002D0
:102AC000B2F57F6F04D94FF2E071C1F6FF7109884A
:102AD00001804180890201F100614160704700007E
:102AE000FEE70000B0B544F2DC55C2F200052978DB
:102AF000044621B100F024FE28780028FAD140F2E3
:102B00005000C2F200000021016044F21661C2F2DE
:102B10000001B1F9002043F2A213C2F200039C5459
:102B20000A8801326FF3DF220A804FF0FF32026021
:102B3000088844F21261C2F200010130B1F90010BC
:102B40006FF3DF20884218BFB0BD0A20BDE8B04057
:102B5000FEF770BA80B500F003FE4FF47A700521DD
:102B600000F0BCFD00F0ECFDBDE8804000F0F0BDE1
:102B7000F0B581B043F6B015C2F2000595F8CE006D
:102B800041F200040328C4F2010432D043F22007CA
:102B90000026C2F2000700BF20464FF4005100F0AB
:102BA000E7FDD7F82801D7F82811091A312905D8E7
:102BB00000BFD7F82811091A3229F9D320464FF45B
:102BC000005100F0D7FDD7F82801D7F82811091ACD
:102BD000312905D800BFD7F82811091A3229F9D3AD
:102BE0000A2E0ED2013600F0ABFD95F8CE00032878
:102BF000D2D120464FF4005101B0BDE8F04000F0C2
:102C0000B7BD20464FF4005100F0B4FD44F28420DB
:102C1000C2F200000121017001B0F0BD4EF60C506F
:102C2000BFF34F8FCEF200000168042201F4E0618F
:102C3000C0F2FA5211430160BFF34F8F00BFFDE7AE
:102C40004EF60C50BFF34F8FCEF200000168042205
:102C500001F4E061C0F2FA5211430160BFF34F8FFB
:102C600000BFFDE7B0B50C460978054601F0030149
:102C700002290FD031BB95F8CE00022803D095F879
:102C8000CE0003281ED1608801281BD1002085F8C2
:102C90001A04B0BDA08895F8CE10032912D161881E
:102CA00071B940F08001C9B2802909D0C1B228466B
:102CB00003F099FCD5F82C042146C26828469047B9
:102CC0000020B0BD0120B0BD90F8CE2000F1CC01B5
:102CD000032A05D0022A01D10A7822B101207047C7
:102CE0000A78002AFAD0C0F8D8100121C0F8E41000
:102CF00000207047B0B50D460978044601F0030185
:102D000001290DD0D1BB698801200A0A022A0EDCF4
:102D1000012A15D0022A32D1D4F8280440680DE0E7
:102D2000D4F82C042946C2682046904727E0032A9D
:102D300015D00F2A23D1D4F828048068817819E0AF
:102D4000D4F8280400680178C4F8D800A4F8E41086
:102D5000E988402904BF0820C4F8E4000EE001F02F
:102D6000FE0005280AD8D4F82804C9B2C06850F873
:102D700021000178A4F8E410C4F8D8000120D4F8A8
:102D8000E41099B1EA888AB191420CD2B4F8D40027
:102D900081420AD3B1FBF0F202FB101028B90120E6
:102DA00084F8250401E0C4F8E4200020B0BD024608
:102DB00090F8CE0003281CBF01207047888810F0CF
:102DC000FE0F4FF0010018BF7047D2F82C14C2F864
:102DD000E40001310020C2F8D81070470A788988D1
:102DE00002F00302022A15D0012A32D07ABB90F8F1
:102DF000CE10022903D090F8CE10032927D190F8E5
:102E0000182490F81A14002A18BF0122002918BFAC
:102E1000911C16E090F8CE20032A18D1CAB200F116
:102E2000CC03C2EBC20203EB820C01F07F02C2EBC7
:102E3000C20203EB82020632090658BF0CF5D572B6
:102E4000117843F6AC12C2F2000211700AE00121BF
:102E500012E011F0FE0F4FF0010190F8CE2008BFF4
:102E6000032A09D143F6AC11C2F20001C0F8D81010
:102E70000221C0F8E4100021084670470120704785
:102E80008A8852B9CA8842B9897801F07F0180F8EE
:102E9000CD1090F8CE20032A01D10120704742695D
:102EA0000029136823F4FE631360136843EA0113D7
:102EB00013600CBF0121022180F8CE100020704762
:102EC00070B50446488843F6AE16C2F2000610F00C
:102ED000FE0F307001D0012529E094F8CE100329AF
:102EE00010D00229F7D1010620D0D4F82C144A685A
:102EF000C1B220469047307884F8CC00032084F893
:102F0000CE0013E0010614D094F8CC20C1B28A425E
:102F10000CD0D4F82C04826820469047D4F82C04B6
:102F200031784268204684F8CC1090470025284626
:102F300070BDD4F82C0400218268204600259047FB
:102F4000307884F8CC00022084F8CE00EFE700202F
:102F5000704780B50A7802F00302022A0FD0FAB94E
:102F600090F8CE20022A03D090F8CE20032A17D161
:102F70004988012904BF012180F81A140EE08A88CB
:102F800090F8CE30032B0BD1498839B942F080013B
:102F9000C9B2802902D0D1B203F00CFB002080BD61
:102FA000012080BD80B590F8CE20032A03D18A8805
:102FB00012F0FE0F01D0012080BDD0F82C24126940
:102FC00002B19047002080BD0020704746F20061AA
:102FD000C4F200010A6800F03F0042F001020A60FA
:102FE0000A6822F47C520A600A6842EA00200860FB
:102FF000086820F001000860704710B546F20041F3
:10300000C4F2000140F21A44884208BF40F2194459
:10301000204600F025FE2046BDE8104000F010BE1E
:10302000B0B5B9B1026840F2010E22F002020260AE
:103030000268CFF6FF7E42F001027346026000BFD5
:10304000426823B112F0010203F10103F8D0426893
:10305000D20701D10020B0BD0B7C4FF0E0654C7C65
:1030600005EA03638D7C64F3134305F007048D8A3E
:1030700043EA04536C1E6FF39F2423444A7891F86B
:1030800002C0C362D1E90234012A43EA040323F0F7
:10309000040318BF0433BCF1010F15D1D1F804C0EB
:1030A000BCF1000FD6D0DCF800209CF8055002F0EF
:1030B00020021A4342F010039CF8042002F07F0221
:1030C00065F30E22826201E023F01003097823F0F9
:1030D0000102012908BF01320262016821F00101E9
:1030E000016000BF42687146BEF1000F04D012F0CB
:1030F000010201F1010EF5D1002918BF0121084696
:10310000B0BD000029B1012902D1102102E000BFA9
:10311000FEE70C210A5842F020020A507047B0B571
:1031200046F20061C4F2000144890A684FF0010CC4
:1031300042F001020A60CB690CFA04F5AB43CB61A3
:10314000C3896FEA050C012B10D023BBCB6803EABF
:103150000C03CB60B0F806E0438843EA0E434FEA25
:10316000C40E01EBC404236403460DE0CB682B437B
:10317000CB60B0F800E0438843EA0E434FEAC40E48
:1031800001EBC4042364831D84881B8843EA044341
:1031900001EB0E04636483894C68002B44EA05024A
:1031A00008BF04EA0C024A6002894B69002A43EA1C
:1031B000050408BF03EA0C044C61007C012802D11D
:1031C000C8692843C861086820F001000860B0BDE4
:1031D0002DE9F041026840F2010C22F00202026087
:1031E0000268CFF6FF7C42F001026346026000BF36
:1031F000426823B112F0010203F10103F8D04268E2
:10320000D20704BF0020BDE8F081036ADA0724D1A9
:1032100043F0010202620A7891F801E08C7892078B
:10322000CD7804F00F0804F070046EF31C624E8930
:1032300042EA841205F0070705F0180542EA084241
:10324000013E42EA85226FF39F2642EA075232444A
:10325000C26123F0010202621DE00A7891F801E0E8
:103260008F789207CE7807F00F0507F070076EF39E
:103270001C624B8942EA871206F0070406F0180622
:1032800042EA0542013B42EA86226FF39F2342EA6B
:1032900004521A44C26102680B7922F080024F790D
:1032A0008E79CD79012B08BF803202600268012F30
:1032B00022F0400208BF403202600268012E22F074
:1032C000200208BF203202600268012D22F01002A5
:1032D00018BF103202600A7A0368012A23F008033B
:1032E00008BF08330360497A0268012922F004020A
:1032F00008BF04320260016821F00101016000BFD3
:1033000042686146BCF1000F04D012F0010201F1E5
:10331000010CF5D1002918BF01210846BDE8F08154
:10332000426922EA010141617047426911434161EA
:10333000704748F2CB02C0F2010291420AD08422C7
:10334000C0F20102914209D04CF28102914209D1AE
:10335000C26804E08269C2F302120CE0026902F062
:10336000030208E00A0B52F800C0C1F384130122E3
:103370009A4002EA0C02406901F01F01C840002A8D
:1033800018BF01221040704781B1042810D880B5C1
:10339000DFE800F0030F18292C004FF080608860F0
:1033A000002048604FF40030086080BDFEE700BF99
:1033B000FEE700204FF480320874CA60086048605D
:1033C000886080BD4FF4806088824FF4007008826E
:1033D0000120887400204FF4807288700A80C1E94F
:1033E0000100C86080BD08464E2101E008464F211B
:1033F000FCF7F3FE80BD000002290BD0012911D09B
:10340000B9B9816841F08001816000BF8168090617
:10341000FCD40EE0816841F40001816081680902FA
:10342000FCD406E0816841F40041816081680904B0
:10343000FCD47047022910D849B210A252F82110CA
:103440008068084040F2FF21C0F60001884206DC97
:1034500018B10321C0F200410AE00220704740F297
:103460000031C0F60001884206D00021C1F20301FC
:1034700088421CBF002070470120704703000004F1
:10348000000300080000031010B58121044603F07A
:103490000FF82046032103F00BF82046822103F0A9
:1034A00007F8002010BD80B5012929D1C1EBC10169
:1034B00000EB8102D2F8DC1061B1B2F8D420B1FB8C
:1034C000F2F303FB121129B901210022002303F0BA
:1034D00020F815E044F21461C2F2000109880029C5
:1034E00044F2DC51C2F2000106D140F25003002246
:1034F000C2F200030A701A60097809B1FDF754FEA0
:10350000002080BDB0B547F2D515C0F6000505F125
:103510003C01044603F016F805F13501204603F09E
:1035200011F805F12501204603F00CF843F6EC51A3
:10353000C2F2000140F20110088000204FF4E13295
:10354000C1E92302A1F89400082081F89600002028
:10355000C4F83014B0BD032904D180B5FDF778FE5E
:10356000BDE88040002070474B78D0F83024212BF4
:103570000ED0202B1CD1C988D0F82C344FF0200C51
:10358000C0F88812911C83F801C0C0F87C120FE0CB
:10359000D2F8901042F8021F92F89210B2F89330CD
:1035A00011710721A2F80530C0F8D820C0F8E41046
:1035B0000020704710B50446D0F82C044078FF284E
:1035C00017D0D4F830044023D0F80210B0F8072008
:1035D000C0F890108179A0F8952080F8941000F13F
:1035E0000A022046032102F07AFFD4F82C04FF21BE
:1035F0004170002010BD40F21441C4F20101086086
:10360000704742F21000C4F20200016841F08001EC
:1036100001607047B0B5044600F016F800B1B0BDC7
:1036200042F21005C4F20205286840F0020028604A
:103630006C60286840F04000286000F005F82968B8
:1036400021F002012960B0BD002142F20C00CFF64A
:10365000F071C4F2020000BF0268D20704D0013149
:1036600024BF05207047F7E70168C90644BF04205E
:1036700070470168490744BF022070470068032172
:10368000000701EAE070704742F20400C4F2020051
:10369000C168090658BF704740F22311C4F2675150
:1036A000016048F6AB11CCF6EF510160704770B580
:1036B0000C460546FFF7C8FF00B170BD42F2100688
:1036C000C4F20206306840F0010030602C60FFF761
:1036D000BBFF316821F00101316070BD80B540F25F
:1036E000020ECFF6F07E43F2000CC4F2000C45F25D
:1036F00055527346CCF80020DCF80C2002F0010291
:103700001BB1002A03F10103F6D16AB9CCF8041009
:10371000DCF80C10BEF1000F01F0020103D000290B
:103720000EF1010EF4D109B1002080BD6FF31F30FE
:10373000CCF808004AF6AA20CCF80000012080BD91
:1037400043F20000C4F200004AF6AA21016070476B
:1037500043F20000C4F200004CF6CC410160704717
:1037600043F20000C4F2000045F255510160704779
:1037700041617047016170472DE9F047CF0601F0C4
:103780000F0C09D5042A05D1C26B4CF0030C1A4367
:10379000C26301E04CEA020C00F1100E00F11408C3
:1037A00000244FF0010A4FF00F0900270AFA07F230
:1037B0001A4011D00668282904D0482904D175463A
:1037C00001E000BF45462A6009FA04F226EA020237
:1037D0000CFA04F52A4302600137082F04F10404AF
:1037E000E4D1082400254FF0010A4FF00F0900BF73
:1037F0000AFA04F21A4011D04768282904D048294F
:1038000004D1764601E000BF4646326009FA05F26F
:1038100027EA02020CFA05F6324342600134102C0A
:1038200005F1040508BFBDE8F087E1E780680840BE
:1038300018BF01207047B0B50422C4F2010213463C
:1038400002F1180E002848BF73461C6800F44013AC
:10385000B3F5401F1FFA80FC06D1156824F0E06321
:1038600025F0E064146011E0C30206D46FF00F038A
:1038700003EA50430CFA03F304E0C0F303430325C7
:1038800005FA03F324EA030343F0E0636FF00F0447
:1038900004EA504400290CFA04F518BF2B43002811
:1038A00048BF72461360B0BD42F21C00C4F2020071
:1038B000006840F340007047FDF716FBFDF737FD49
:1038C000FDF7C6FBFDF7F8FB44F2D450C2F200004E
:1038D000FFF7EDF8FDF7EBFD18B9FEF7D3F8FEF7AB
:1038E000A7F9FDF7A6FEFEF7B7FFFDF71FFDFFF7EF
:1038F00031F944F21C6045F65341C2F20000C0F6B3
:103900000001016040F60000C4F201004FF4807134
:10391000FFF78CFF0020FCF7DBFE0120FCF7D8FE50
:10392000FFF75BF843F6B01040F23C0240F20C03A4
:10393000C2F20000C2F20002C2F20003012102F052
:10394000C6FEFFF715F9FEF765FD44F28420C2F2CA
:1039500000000078012808BF01F08CFD43F220052B
:1039600044F28624C2F20005C2F20004288910F451
:10397000405F08BF02F0F8F801F0D8FE02F045F809
:1039800000202146FCF768FF01202146FCF764FF78
:10399000002001F02FFF012001F02CFF2046FDF751
:1039A00069FF01F091FFFFF7CBFEDFE74EF60C5CFD
:1039B000CEF2000CDCF8003003F4E063A3F54073B2
:1039C000B3F5A06F01D21B0A06E040F20053C0F22B
:1039D000FA53CCF80030022301FA03FCC3F10403CC
:1039E0000F21D94011404EF2001241EA0C01CEF2F3
:1039F0000002090140EA020383F8001300F01F01EE
:103A0000012303FA01F11C2303EAD000815070471F
:103A100040F080604EF60C5140F0FD70CEF2000197
:103A2000086070474FF68072C1F6FF72114008437C
:103A30004EF60851CEF2000108607047B0B547F26B
:103A40000003C4F200031A6844F2E85E22F00302A5
:103A50001A60D3F800C04EF2001240EA0C00CEF219
:103A600000021860D2F8100C44F2E45C40F004004C
:103A7000C2F8100C52F8F00CC2F2000CCCF80000A6
:103A80001068C2F2000ECEF80000536844F2EC5009
:103A9000C2F200000360946844F2F053C2F20003E3
:103AA0001C6052F8F04C0425C0F201052C4042F88D
:103AB000F04C4FF63D04CFF67F74C2F880406FF4AF
:103AC000E064C2F884404FF0FF34C2F88840002917
:103AD0000FBF30BF40BF20BF20BFDCF8001042F84E
:103AE000F01CDEF8001011600068506018689060EB
:103AF000D2F8100C20F00400C2F8100CB0BD000089
:103B000010B541F20402C4F202021168C1F381014E
:103B1000022906D001290CD141F60031C0F2B701CB
:103B200045E01168C90309D440F6001CC0F23D0C01
:103B300027E041F20021C0F27A0138E0916A936AED
:103B4000490046F60041C0F2DC215CBF41F600317D
:103B5000C0F2B701DB030ED5936AC3F3031C936A6B
:103B60000CF1010CC3F30323B1FBFCF10233112B65
:103B700008BF14235943936A03F00F030133B1FBC9
:103B8000F3FC13681168C3F3834E102303EA5161F9
:103B9000714401230F2938BF02230B440F2B11BF9F
:103BA00003FB0CF10CEB4C01490001EB5C011368C9
:103BB000D2F800C0146803280FD8C3F303130DA272
:103BC000D25C47F22E2E21FA02F3C0F6000EDFE897
:103BD00000F00F02060919460AE0002108E0CCF3C4
:103BE000022001E0C4F3C2201EF8000023FA00F115
:103BF000084610BD000000000000000001020304A0
:103C00000607080941F2000300F01F018009C4F211
:103C100002034FF0010CC2580CFA01F11143C150DC
:103C2000704741F2000300F01F018009C4F2020353
:103C30004FF0010CC2580CFA01F11143C15070470A
:103C400041F2000300F01F018009C4F202034FF0AB
:103C5000010CC2580CFA01F122EA0101C15070476F
:103C600041F2000300F01F018009C4F202034FF08B
:103C7000010CC2580CFA01F11143C150704741F2D6
:103C80000401C4F202010A6822F4400210430860F1
:103C90007047000070B544F2F850C2F200000468AA
:103CA00064B347F65121C0F600012046FCF7A0FAA4
:103CB000A0B344F2FC50C2F200000068002871D0AA
:103CC00000210A22FCF714FB4FF0FF3111FA80F1BA
:103CD000052900F28A8043F22004C2F2000494F81D
:103CE000241104F10E0232F8113000F0070023F421
:103CF000E06343EA002022F8110091E047F2966069
:103D0000C0F6000003F046F843F22000C2F20000C3
:103D100090F82401BDE87040FEF754BA47F65621EA
:103D2000C0F600012046FCF763FA002800F09980F5
:103D300044F2FC50C2F200000068002800F0A380AA
:103D400000210A22FCF7D4FA43F22006C2F2000650
:103D500096F8241106F10A0232F8113000F003003F
:103D600023F0300343EA001022F8110096F82441B2
:103D700096F8240132F8100096F82411C0F30115CA
:103D800032F81110C1F30110FCF738FD034647F675
:103D90007610C0F6000021462A4602F0C3FF96F8CE
:103DA00024015AE092A002F0F5FF43F22000C2F293
:103DB000000090F8241190F8242100F10E0333F84C
:103DC000122090F8240147F2F20502F01F02C0F61B
:103DD000000533F8100005EBC202D288C0F30223BD
:103DE00047F61100C0F600006DE080B2FCF71AFD46
:103DF00047F2A211C0F600010978B1EB104F98BF4D
:103E000070BD43F22004C2F2000494F8241104F1BE
:103E10000E0232F81130000C60F3040322F8113066
:103E200094F8241194F8240147F2F20332F81000B8
:103E300094F8245100F01F00C0F6000303EBC0000B
:103E400032F81530C28847F61100C3F30223C0F6DA
:103E5000000002F067FF94F82401BDE87040FCF711
:103E600037BC78A12046FCF7C3F980B344F2FC507C
:103E7000C2F20000006898B300210A22FCF738FA69
:103E800000F0010030E065A002F084FF43F2200062
:103E9000C2F2000090F8244190F8241100F10A02C7
:103EA00032F8111090F82401C1F3011532F8100016
:103EB000C0F30110FCF7A2FC034647F67610C0F6EB
:103EC000000021462A46BDE8704002F02BBF5EA1EB
:103ED0002046FCF78DF958B1BDE87040FDF748BDAC
:103EE0000020FEF7B7F80120BDE87040FEF7B2B839
:103EF00047F69721C0F600012046FCF779F960B13A
:103F000044F2FC50C2F200000068C0B100210A2255
:103F1000FCF7EEF900F0010017E04DA12046FCF798
:103F200067F9B0B144F2FC50C2F200000068C8B3B7
:103F300000210A22FCF7DCF900F00100EAE643F276
:103F40002000C2F2000090F82401BDE87040FDF7A7
:103F500009B841A12046FCF74BF940B344F2FC50AC
:103F6000C2F20000006850B300210A22FCF7C0F939
:103F700043F22004C2F2000494F8241104F10A026E
:103F800032F8113060F3000322F8113094F8240164
:103F900033A132F81000C00736A008BF084602F06F
:103FA000F9FE58E70020FEF70DF90120B2E647F2CE
:103FB0009660C0F60000BDE8704002F0EBBE47F22C
:103FC0008C40C0F6000002F0E5FE43F22000C2F291
:103FD000000090F8241100EB4100408900F001013D
:103FE00047F6FB00C0F60000BDE8704002F09ABE44
:103FF0002063616E2062617564205B62617564207C
:10400000696E206B6270735D207365742043414E4E
:104010002062617564726174652E0A002063616EAE
:10402000206D6F6465205B307C317C327C335D2099
:104030007365742043414E20776F726B206D6F64FF
:10404000652E0A0072656700737065656400000084
:1040500073746174000000006664656E0000000007
:1040600044697361626C652043414E46442E2E2E96
:104070000A000000456E61626C652043414E464473
:104080002E2E2E0A00000000B0B584B044F2F85085
:10409000C2F200000468E4B1AFA12046FCF7A8F822
:1040A000002844D044F2FC50C2F20000006843F201
:1040B0002004C2F2000438B100210A22FCF7E0F823
:1040C000E18860F30001E180E08800F00101A4A034
:1040D0003DE147F2CD50C0F6000002F05BFE43F236
:1040E0002000C2F20000C188C288C388B0F806E090
:1040F000D0F830C140F24C00C2F20000006801F07C
:104100000101B0F86A40B0F86C50CEF30120CDE95F
:10411000000C47F67700C2F38002C3F30113C0F628
:1041200000000294039502F0FDFD04B0B0BD8FA124
:104130002046FCF75DF8E0B144F2FC50C2F200000A
:10414000006868B100210A22FCF79AF843F22001C6
:10415000C2F20001CA8822F0020260F34102CA8062
:1041600043F22000C2F20000C088C0F3400181A0E9
:10417000EDE083A12046FCF73BF8E0B144F2FC50AF
:10418000C2F20000006868B100210A22FCF778F84A
:1041900043F22001C2F20001CA8822F0040260F357
:1041A0008202CA8043F22000C2F20000C088C0F33D
:1041B000800175A0CBE077A12046FCF719F8E0B1AB
:1041C00044F2FC50C2F20000006868B100211022E5
:1041D000FCF756F843F22001C2F20001CA8822F02F
:1041E000300260F30512CA8043F22000C2F20000E0
:1041F000C088C0F3011169A0A9E06BA12046FBF7BC
:10420000F7FFE0B144F2FC50C2F20000006868B170
:1042100000211022FCF734F843F22001C2F2000121
:10422000CA8822F4407260F30922CA8043F2200057
:10423000C2F20000C088C0F301215DA087E05FA149
:104240002046FBF7D5FFB8B144F2FC50C2F20000A3
:10425000006848B100210A22FCF712F843F220015D
:10426000C2F20001C1F8300143F22000C2F20000A6
:10427000D0F8301153A06AE055A12046FBF7B8FFF3
:1042800088B144F2FC50C2F20000006810B3002173
:104290000A22FBF7F5FF40F24C01C2F20001096867
:1042A000A1F868001DE04FA12046FBF7A1FFD8B19F
:1042B00044F2FC50C2F20000006860B300210A2200
:1042C000FBF7DEFF40F24C01C2F200010968A1F8E1
:1042D0006A0027E040F24C00C2F200000068B0F82B
:1042E000680081B23CA032E044A12046FBF780FF89
:1042F000D8B144F2FC50C2F200000068F0B10021D5
:104300000A22FBF7BDFF40F24C01C2F2000109682E
:10431000A1F86C0019E040F24C00C2F20000006805
:10432000B0F86A0081B231A011E047F2CD50C0F67A
:10433000000004B0BDE8B04002F02CBD40F24C00DB
:10434000C2F200000068B0F86C0081B22DA004B089
:10435000BDE8B04002F0E6BC6563686F0000000095
:10436000204543484F3D25640A000000746573747E
:104370000000000020544553543D25640A0000000D
:10438000736F66740000000020534F46543D25644F
:104390000A0000006C6576656C000000204C4556F4
:1043A000454C3D25580A00006368616E000000001E
:1043B000204348414E3D25580A00000074696D6550
:1043C000000000002054494D453D256C640A000062
:1043D000747269670000000020545249473D256C03
:1043E000640A000064656C61793000002044454C2B
:1043F0004159303D256C640A0000000064656C6121
:10440000793100002044454C4159313D256C640A06
:10441000000000002DE9F04381B044F2F850C2F2F0
:1044200000000468002C00F08F804CA12046FBF7B0
:10443000DFFE002840D044F2FC50C2F200000068C9
:10444000002866D0002110220024FBF751FF44F21F
:104450000061C2F200010968C7B229B10846002113
:104460001022FBF745FF84B2A4F10800382888BF6A
:1044700040243F2F1BD800200FF2E8080FF2F0096C
:104480003E460025400703D14046314602F04AFC33
:10449000B0B2FCF72DFE0146484602F043FC013560
:1044A000A8B2844203D917FA85F6402EEAD347F61C
:1044B000CD10C0F600004BE02FA12046FBF798FE80
:1044C00050B344F2FC50C2F20000006808B344F25A
:1044D0000064C2F200042168D9B100211022FBF768
:1044E00007FF21680446084600211022FBF700FF61
:1044F000E4B285B220462946FCF74DFE20A02946AD
:1045000002F010FC23A0214601B0BDE8F04302F008
:1045100009BC01B0BDE8F08347F63E21C0F60001BA
:104520002046FBF765FE18B1FCF7C6FD20A00FE0A2
:1045300047F66A21C0F600012046FBF759FE18B184
:10454000FCF7E0FD21A003E047F2B240C0F6000016
:1045500001B0BDE8F04302F01DBC00BF72656164AC
:10456000000000000A307825303458202000000078
:10457000253034582000000077726974650000000F
:104580002077726974652030782530345820746F34
:104590000000000020656570726F6D2061646472B8
:1045A00065737320307825303458202E2E2E0A0063
:1045B0004C6F61642066726F6D20496E742E2045C9
:1045C0004550524F4D2E2E2E0A0000005361766545
:1045D00020746F20496E742E20454550524F4D2E49
:1045E0002E2E0A00F0B587B044F2F850C2F2000057
:1045F00004685CB30FF2BC312046FBF7F9FD0028DC
:1046000070D044F2FC50C2F20000006843F2200473
:10461000C2F2000478B100210A22FBF769FE94F887
:10462000241100F0010004EB41014A8922F40072D8
:1046300042EA4020488194F8241194F8240104EBC4
:1046400040004089C0F34022DCA0A6E047F223707E
:10465000C0F6000002F09EFB43F22000C2F2000010
:1046600090F8241190F8242100F10A0434F812C0C3
:1046700090F8243134F8133090F82421C3F3002348
:1046800034F812E090F82451CCF3402234F815C0ED
:1046900090F82451CEF3802E34F8155090F8246110
:1046A000C5F3800534F8164090F82461CCF3400C33
:1046B00000EB8606D6F8446190F8247100EB870081
:1046C000D0F84C71C4F3C020CDE9025047F68810F1
:1046D000C0F60000CDE900EC0496059702F022FB3D
:1046E00007B0F0BDB9A12046FBF782FD40B344F20C
:1046F000FC50C2F20000006898B100210A22FBF7CA
:10470000F7FD43F22001C2F2000191F8242100F0EC
:10471000010001EB42014A8922F4807242EA002042
:10472000488143F22000C2F2000090F8241190F872
:10473000242100EB42004089C0F30022A4A02CE019
:10474000A7A12046FBF754FD60B344F2FC50C2F22F
:104750000000006898B100210A22FBF7C9FD43F26E
:104760002001C2F2000191F8242100F0010001EBC8
:1047700042014A8922F4806242EA8020488143F261
:104780002000C2F2000090F8241190F8242100EBE0
:1047900042004089C0F3802293A007B0BDE8F040FA
:1047A00002F0C0BA94A12046FBF722FD30B344F2D8
:1047B000FC50C2F20000006898B100210A22FBF709
:1047C00097FD43F22001C2F2000191F8242100F08C
:1047D000010001EB42014A8922F0020242EA400054
:1047E000488143F22000C2F2000090F8241100EB4F
:1047F00041004089C0F3400181A056E083A12046DA
:10480000FBF7F6FC30B344F2FC50C2F20000006843
:1048100098B100210A22FBF76BFD43F22001C2F29E
:10482000000191F8242100F0010001EB42014A89C6
:1048300022F0040242EA8000488143F22000C2F2E2
:10484000000090F8241100EB41004089C0F3800182
:104850006FA02AE071A12046FBF7CAFC50B344F2D6
:10486000FC50C2F20000006898B100210A22FBF758
:104870003FFD43F22001C2F2000191F8242100F033
:10488000010001EB42014A8922F4006242EAC020A1
:10489000488143F22000C2F2000090F8241100EB9E
:1048A00041004089C0F3C0215DA007B0BDE8F040E1
:1048B00002F038BA5DA12046FBF79AFC08B344F237
:1048C000FC50C2F20000006868B100210A22FBF728
:1048D0000FFD43F22001C2F2000191F8242101EB07
:1048E0008201C1F8440143F22000C2F2000090F8B6
:1048F000241190F8242100EB8200D0F844214CA030
:104900004BE74FA12046FBF773FC08B344F2FC5081
:10491000C2F20000006868B100210A22FBF7E8FC3F
:1049200043F22001C2F2000191F8242101EB82013F
:10493000C1F84C0143F22000C2F2000090F82411AB
:1049400090F8242100EB8200D0F84C213DA024E710
:1049500040A12046FBF74CFCC8B144F2FC50C2F227
:104960000000006858B100210A22FBF7C1FC43F2A5
:10497000200100F00100C2F2000181F8240143F29D
:104980002000C2F2000090F8241133A08DE734A17A
:104990002046FBF72DFC20B107B0BDE8F040FCF746
:1049A0007DBF47F22370C0F6000007B0BDE8F040BD
:1049B00002F0F0B973686F77000000004348256487
:1049C0002053484F573D25640A000000616464008D
:1049D00043482564204144443D25640A000000000A
:1049E00073696E676C650000434825642053494E27
:1049F000474C453D25640A00747866640000000059
:104A000020545846443D25640A0000006272730039
:104A1000204252533D25640A00000000747874005F
:104A2000205458543D25640A00000000636E740051
:104A30004348256420434E543D25640A000000008D
:104A40007072640043482564205052443D256475CB
:104A5000730A0000636800002043483D25640A0093
:104A600072636300F0B581B043F2200544F2F85060
:104A7000C2F20005C2F2000095F82411006878B374
:104A800042F6044201F00101C2F2000252F8211084
:104A90001022CE6800210027FBF72AFC20F060409E
:104AA00030610420307595F8240147F6632105EB49
:104AB00040004089C0F60001C0F3400086F85A006B
:104AC00044F2FC50C2F2000004680120A6F85B002A
:104AD0002046FBF78DFB60B102207075777631E0E0
:104AE00047F24B50C0F6000001B0BDE8F04002F0C4
:104AF00051B9777595F8240106F11A0105EB4000CC
:104B000040890005204602D4FCF782FC01E0FBF757
:104B1000B5FC96F85A10707671B1092811D347F296
:104B200048220021C0F60002535C834208D20131C2
:104B30000729F9D1402004E0082828BF082000E018
:104B40001846707695F8240100F0010001B0BDE828
:104B5000F040FDF78FB80000B0B544F2F850C2F253
:104B600000000468B4B347F65B21C0F6000120469C
:104B7000FBF73EFBE0BB204600210A22FBF7B8FB17
:104B800044F2FC51C2F200010D6847F6562100F0D4
:104B90000704C0F600012846FBF72AFB48B344F29D
:104BA0000060C2F20000006810B300210A22FBF787
:104BB0009FFB40F24C01C2F20001096801228B8A7E
:104BC000A24043EA0205C00708BF23EA02052046C7
:104BD0008D828BE047F25760C0F6000002F0DAF8F1
:104BE000002400BFA0B2FDF73FFB0134082CF9D12F
:104BF000B0BD40A12846FBF7FBFAD8B144F20060F3
:104C0000C2F2000000680028F2D000210A22FBF75F
:104C10006FFB40F24C01C2F2000109680122CB8A0D
:104C2000A24043EA0205C00708BF23EA0205204666
:104C3000CD825BE031A12846FBF7DAFAD8B144F225
:104C40000060C2F2000000680028D1D000210A22D2
:104C5000FBF74EFB40F24C01C2F200010968012251
:104C60000B8BA24043EA0205C00708BF23EA0205F6
:104C700020460D833AE022A12846FBF7B9FAB8B1E5
:104C800044F20060C2F2000000680028B0D00021A9
:104C90001022FBF72DFB014640F24C00C2F200004F
:104CA00000680A0C00EBC4031A84204659841DE0F6
:104CB00014A12846FBF79CFAB8B144F20060C2F296
:104CC00000000068002893D000211022FBF710FBA1
:104CD000014640F24C00C2F2000000680A0C00EBF2
:104CE000C4039A842046D98400E02046BDE8B04041
:104CF000FDF7BABA7363616C65000000616374000C
:104D0000723000007231000070B547F6B8260025F9
:104D1000C0F6000605A400BF70197159426820460C
:104D200002F000F80C35782DF6D170BD20257320E7
:104D30002D3E20257300000010B544F2F850C2F259
:104D400000000468C4B320A12046FBF751FA18B153
:104D5000BDE81040FDF7F6BA47F69721C0F600010E
:104D60002046FBF745FA78B143F22000C2F200007A
:104D70000021C0F85C11C0F86011C0F86411C0F8DF
:104D80003C11C0F8401110BD10A12046FBF730FACD
:104D900048B143F22000C2F20000C1880DA0BDE876
:104DA000104001F0BFBF0FA12046FBF721FA18B158
:104DB000BDE81040FCF772BD47F23260C0F600005B
:104DC000BDE8104001F0E6BF737973007265677348
:104DD000000000002046554E433D307825303458C1
:104DE0000A000000636C6B0010B544F2F850C2F288
:104DF0000000006880B141F2000400211022C4F2DA
:104E00000104FBF775FAC00707D120464FF40051A3
:104E1000BDE81040FEF7AEBC10BD20464FF4005177
:104E2000BDE81040FEF7A4BCB0B544F2F850C2F2A1
:104E30000000006800B300211022FBF759FAE0B12E
:104E4000044644F2FC50C2F20000006830B1002178
:104E50001022FBF74DFA85B2072D01D84FF480756B
:104E600020462946FCF7ACFB034608A021462A460B
:104E7000BDE8B04001F056BFB0BD47F24F40C0F6AC
:104E80000000BDE8B04001F085BF00BF535441525F
:104E9000543D307825303858204C454E3D307825EB
:104EA000303858204352433D3078253034580A007A
:104EB0002DE9F04F81B0FEF7F7FC01307BD044F2D2
:104EC000F850C2F200000068002877D000211022BC
:104ED000FBF70EFA002876D047F6CF1A47F63427AC
:104EE00020F003054FF0000BC0F6000A6FF01F0919
:104EF000C0F60007009000BF00EB0B1136A001F0D8
:104F000011FF002455F824605046F1B201F00AFF69
:104F1000C6F30721504601F005FFC6F3074150468E
:104F200001F000FF310E504601F0FCFE0134042C6C
:104F3000E8D14FF0000800BF55F828402E2159FA5B
:104F400084F05F28384638BFE1B201F0EBFE59FA31
:104F500094F05F284FF02E01384638BFC4F3072184
:104F600001F0E0FE59FAA4F05F284FF02E01384618
:104F700038BFC4F3074101F0D5FE04F16040B0F141
:104F8000BE4F4FF02E01384638BF210E01F0CAFE49
:104F900008F10108B8F1040FCED147F6CD10C0F6E4
:104FA000000001F0F7FE0BF1010B0098BBF1100FB0
:104FB00005F11005A0D101B0BDE8F08F47F2E8700F
:104FC000C0F6000003E047F24F40C0F6000001B019
:104FD000BDE8F04F01F0DEBE30782530384C582067
:104FE0000000000010B544F2F850C2F2000004685E
:104FF00064B347F63E21C0F600012046FBF7F8F8FF
:1050000030B116A001F0C6FEBDE81040FCF74FBA63
:1050100047F66A21C0F600012046FBF7E9F830B1F7
:1050200017A001F0B7FEBDE81040FCF701BE47F63F
:105030005B21C0F600012046FBF7DAF830B118A07A
:1050400001F0A8FEBDE81040FCF71CBD47F29570CA
:10505000C0F60000BDE8104001F09CBE204C6F611E
:105060006420706172616D65746572732066726F21
:105070006D20454550524F4D2E2E2E0A0000000047
:10508000205361766520706172616D65746572731D
:1050900020746F20454550524F4D2E2E2E0A000091
:1050A00020526573746F72652064656661756C74F7
:1050B00020706172616D65746572732E2E2E0A0008
:1050C00044F2F850C2F20000006808B9002003E082
:1050D00000210A22FBF70CF9FBF7ACFF03A001F05B
:1050E00059FE012080F31388FDF7AAFD2072656246
:1050F0006F6F74696E672E2E2E200A00F0B581B096
:1051000043F2200544F2F850C2F20005C2F200005A
:1051100095F82411006870B342F6044201F00101D1
:10512000C2F2000252F821101022CE68002100279E
:10513000FBF7DEF86FF3DF20F060377595F8240198
:1051400047F6632105EB40004089C0F60001C0F33B
:10515000400086F85A0044F2FC50C2F20000046895
:105160000120A6F85B002046FBF742F860B1022060
:105170007075777632E047F28C50C0F6000001B0CF
:10518000BDE8F04001F006BE777595F8240106F100
:105190001A0105EB400040890005204602D4FCF7C7
:1051A00037F901E0FBF76AF996F85A10707679B191
:1051B000092812D347F248220021C0F6000200BF9E
:1051C000535C834208D201310729F9D1402004E021
:1051D000082828BF082000E01846707695F82401BA
:1051E00000F0010001B0BDE8F040FCF743BD000055
:1051F00010B544F2F850C2F2000004686CB347F6F0
:105200005121C0F600012046FAF7F2FF002856D0DF
:1052100044F2FC50C2F200000068002800F08380D5
:1052200000210A22FBF764F8FDF756FB43F2200148
:10523000C2F200010A8900F00F0022F4706242EA13
:1052400000200881088947F2A411C0F30320C0F6AA
:10525000000151F8201061A073E047F2C360C0F66E
:10526000000001F097FD43F22004C2F200042089FF
:1052700047F2A411C0F30320C0F6000151F820103A
:1052800076A001F04FFD20892289C0F3013102F49C
:10529000405047F62B22B0F5805F47F67B1047F66B
:1052A0003023C0F60002C0F60000C0F6000308BFBD
:1052B0001A4601F037FD2089C1B26BA041E047F6E4
:1052C0005621C0F600012046FAF792FFE8B344F2F7
:1052D000FC50C2F200000068002854D000210A22CD
:1052E000FBF706F843F22001C2F200010A8947F6F3
:1052F000302322F4405260F30D320A8108890A8972
:10530000C0F3013102F4405047F62B22C0F60002F0
:10531000B0F5805F47F21050C0F6000308BF1A4690
:10532000C0F6000046E043F22000C2F2000000890F
:1053300047F2A411C0F30320C0F6000151F8201079
:1053400035A0BDE8104001F0EDBC3DA12046FAF7C4
:105350004FFF98B344F2FC50C2F200000068A8B3BB
:1053600000210A22FAF7C4FF43F22001C2F2000131
:105370000A8960F307020A810889C1B247F2EB602B
:10538000C0F60000DDE743F22000C2F20000018910
:10539000008947F62B2200F4405047F63023C0F630
:1053A0000002C1F30131C0F60003B0F5805F08BF11
:1053B0001A461EA0BDE8104001F0B4BC47F2C3601D
:1053C000C0F60000BDE8104001F0E4BC43F220004C
:1053D000C2F200000089C1B21BA0B2E7207365745D
:1053E0002055415254204241554420746F20256C71
:1053F000642C20736176652026207265626F6F745D
:1054000020746F206170706C79206E657720626106
:1054100075642E0A0000000020554152542042417C
:105420005544203D20256C640A000000205541525F
:1054300054204D4F4445203D2025642025730A000B
:1054400061646472000000002055415254204144C0
:105450004452203D2025640A0000000020424155AE
:10546000443D256C640A000020414444523D2564BB
:105470000A00000070B547F2D220C0F60000008894
:10548000410AC0F3431200F01F030BA001F04AFCD5
:105490004FF2E8760025C1F6FF760DA436F8151018
:1054A000204601F03FFC0135062DF7D10AA0BDE8EA
:1054B000704001F06FBC00BF2056434F4D43414E3A
:1054C000207625642E25642E256420534E3A000054
:1054D00025303458000000000A204543484F20532F
:1054E000747564696F203C6563686F2E786A7475A3
:1054F00040676D61696C2E636F6D3E2E20416C6C50
:1055000020526967687473205265736572766564AA
:105510002E0A0000406A70474162704710B541F69C
:10552000FF31C4F2000188421BDC40F6FF31C4F2B7
:105530000001884230DD41F2FF31C4F200018842AF
:1055400051DC40F60041C4F2000188426AD041F2C9
:105550000001C4F20001884240F0838040F204441C
:1055600077E043F2FF31C4F20101884226DD44F6C0
:10557000FF71C4F20101884244DC43F20041C4F2ED
:105580000101884251D044F60041C4F20101884231
:1055900067D140F213345CE0B0F1804F48D040F264
:1055A0000041C4F20001884245D040F60001C4F237
:1055B0000001884255D140F202444AE041F60041E0
:1055C000C4F20001884239D042F20001C4F2000165
:1055D000884236D042F60041C4F20101884240D1EF
:1055E00040F20B3435E041F20041C4F20001884240
:1055F0002AD041F60001C4F20001884231D140F2C4
:10560000064426E045F20001C4F2010188421ED0A2
:1056100045F20041C4F20101884218BF10BD40F2BA
:10562000153416E040F2034413E040F20D3410E06C
:105630004FF480640DE040F201440AE040F2074478
:1056400007E04FF4816404E040F2054401E04FF4C8
:1056500045742046FEF704FB2046BDE81040FEF7E7
:10566000EFBA10BD016841F001010160704780B5DB
:105670000A8843F2004C826240F6FF32C4F2000214
:105680009042C4F2010C0DDCB0F1804F18D040F212
:105690000043C4F20003984212D040F60003C4F263
:1056A00000030BE040F60043C4F20003984207D029
:1056B000604505D042F60043C4F2010398420FD181
:1056C000036823F0700303604B88026803F06003F3
:1056D0001A4302608A88036802F010021A430260CB
:1056E00041F20002D1F808E020F48063C4F2000225
:1056F0009342C0F82CE009D0026822F440720260A4
:105700008A89036802F440721A430260604505D03A
:1057100042F60042C4F20102904201D1897B01634A
:10572000416941F00101416180BD00002DE9F04770
:1057300043F22000C2F2000090F8240142F6044136
:1057400040F24C0200F00100C2F20001C2F200027D
:10575000126851F82060508BD6F80C806FF3DF2070
:10576000444644F80C0F0020A8F81400012042F62B
:105770000C4788F81900C2F20007D7F80804B0B344
:1057800044F20049C4F2000907F2FF3AD7F80404D2
:105790000025007888F81A0030682146FBF7AAFA3D
:1057A000032806D1FDF7CCFFB5F5704F05F10105D3
:1057B000F2D9D7F80404411C514588BFA0F2FF314B
:1057C000C7F80414484640F2053100F0C7FAD7F88C
:1057D000080440F205310138C7F80804484600F0D3
:1057E000C9FAFDF7ADFFD7F808040028CED1BDE80F
:1057F000F0870000B0B584B000F0010142F604402B
:10580000C2F2000050F821000068846943F22000D1
:10581000C2F20000084490F87E2100F5BF7504F044
:10582000070012B1D0B9002017E0B8B10CA001F008
:1058300079FAC4F30210C4F38001220EC4F30743C3
:10584000C4F3400C04F0010E8DE803100EA02146B5
:10585000CDF80CE001F066FA0120287004B0B0BD6C
:10586000205761726E696E673A2043414E2564206D
:10587000627573206572726F72206F6363757272E6
:1058800065642E2E2E0A00002043414E5F45525281
:105890003D30782530384C58205245433D25642012
:1058A0005445433D2564204C45433D256420424FEB
:1058B00046463D256420455056463D2564204557C3
:1058C00047463D25640A0000F0B581B043F2200050
:1058D000C2F2000090F86F11002900F094800021BE
:1058E00044F20A6580F86F11C2F20005298840F67B
:1058F000004401316FF35F2144F2096644F2086706
:10590000C4F20104B1F5FF7FC2F20006C2F2000743
:1059100029800EDAE1B1012930D190F87111FF220E
:10592000FF29317080F8712128D120464FF40061A1
:1059300018E01AD040F2FF1291421FD1D0F878112E
:10594000E1B1012180F871110021C0F8781115E052
:1059500090F87011FF22FF29397080F870210ED164
:1059600020462021FDF704FF08E0D0F8741129B18A
:10597000012180F870110021C0F8741139780229D2
:1059800008D0012919D12888B0F5817F11D00228CB
:1059900005D012E0288800F03F01032904D12046F9
:1059A0002021FDF7E7FE08E0203000F03F0003284B
:1059B00003D120462021FDF7DBFE3078022808D0F5
:1059C000012820D12888B0F5827F14D0042805D082
:1059D00019E0288800F03F01052907D120464FF43F
:1059E000006101B0BDE8F040FDF7C4BE203000F01A
:1059F0003F00052807D120464FF4006101B0BDE803
:105A0000F040FDF7B5BE01B0F0BD43F22000C2F298
:105A100000000178022904D0012918BF7047FCF763
:105A2000F9BC01894AF6AB22C1F301310131CAF652
:105A3000AA22A1FB02235A08038902EB4202891A17
:105A400023F4405242EA01310181FBF75BBB0000C5
:105A5000B0B543F22005C2F20005D5F82C0144F29E
:105A60000E620130C5F82C0144F2106CC2F2000243
:105A7000C2F2000C1188BCF80030481C81B242F21E
:105A800011740133A14219B2ACF80030108034D344
:105A90004FF0000EA2F800E095F8242105F1140360
:105AA00002EB021203EBC202948804F03F049480DC
:105AB00095F8242102EB021253F8322095F8244184
:105AC00095F8240104EB041400EB001003EBC00074
:105AD000808803EBC40404EB4000C28095F82401E5
