:020000040800F2
:100000006016002045010008F7010008F101000812
:10001000F5010008ED0100082D03000800000000B4
:10002000000000000000000000000000FB010008CC
:10003000EF01000800000000F90100085D01000860
:100040005F0100085F0100085F0100085F01000810
:100050005F0100085F0100085F0100085F01000800
:100060005F0100085F0100085F0100085F010008F0
:100070005F0100085F0100085F0100085F010008E0
:100080005F0100085F0100085F0100085F010008D0
:10009000270300085F0100085F0100085F010008F6
:1000A0005F0100085F0100085F0100085F010008B0
:1000B0005F0100085F0100085F0100085F010008A0
:1000C0005F0100085F0100085F0100085F01000890
:1000D0005F0100085F0100085F0100085F01000880
:1000E0005F0100085F0100085F0100085F01000870
:1000F0005F0100085F0100085F0100085F01000860
:100100005F0100085F0100085F0100085F0100084F
:100110005F0100085F0100085F0100085F0100083F
:100120005F0100085F0100085F0100085F0100082F
:10013000DFF80CD000F02AF800480047110C000846
:10014000601600200648804706480047FEE7FEE7A5
:10015000FEE7FEE7FEE7FEE7FEE7FEE7FEE7FEE777
:10016000FD01000831010008D2B201E000F8012BC6
:10017000491EFBD270470022F6E710B513460A4627
:1001800004461946FFF7F0FF204610BD064C074D08
:1001900006E0E06840F0010394E807009847103457
:1001A000AC42F6D3FFF7C8FFC4220008E4220008DF
:1001B00030B58C1810F8012B12F00F0301D110F894
:1001C000013B120906D110F8012B03E010F8015B86
:1001D00001F8015B5B1EF9D101E001F8013B521E01
:1001E000FBD1A142E6D3002030BD0000FEE77047FE
:1001F000FEE70000FEE770477047704781B04EF69B
:100200008851CEF200010A6841F2000042F4700207
:10021000C4F202000A60016844F61F6341F0010164
:100220000160416841F08001416000210091009A25
:100230009A4207D844F62062009B01330093009B4A
:100240009342F9D34160C16201684FF6FF72CFF665
:10025000F662114001604FF41F018160016821F4D2
:1002600080210160016841F4803101604FF6FE7128
:1002700003684A1E8A4203D213F400311146F7D0B4
:100280000168890301D400BFFEE7C26947F200019B
:1002900042F08052C4F20001C2610A684FF6FF7357
:1002A00042F440420A604268CBF2C3734260426843
:1002B0004260426842F480624260426822F4403206
:1002C0004260426842F44032426042681A404260F2
:1002D000426842F0006242F450124260026842F00A
:1002E0008072026002689201FCD50A6842F4803292
:1002F0000A6000BF4A68D203FCD50A6842F40032A3
:100300000A6000BF4A689203FCD5416821F00301EE
:100310004160416841F00201416000BF4168090746
:10032000FCD501B0704701F0C3BD0000FEE7D0F876
:1003300080004068817811807047D0F880000068A4
:10034000017811807047B0B50446C07C40B1D4F844
:100350008810E06BCB6A0021002200259847E574E5
:10036000A078032805D1D4F88400016909B120469A
:100370008847D4F888000021826A204600259047EB
:10038000607828B1D4F88800C16820468847657035
:10039000B0BDB0B5044680780D46032805D1D4F829
:1003A0008400416909B12046884705EB450004EB0C
:1003B00080000021C0E90611D4F88810E06BCB6AF8
:1003C00000210022BDE8B0401847B0B50446D0F87F
:1003D000880004F10B05036B284600210022984792
:1003E000082816D1287800F06000402807D020287F
:1003F0000AD070B92046294601F064FE08E0204684
:10040000294601F088FE03E02046294601F089FADA
:1004100038B1D4F88800426B20460021BDE8B040D6
:100420001047B4F8110040B195F90000B0F1FF3F5A
:100430000CDDD4F88800826AEEE7D4F88810E06B0F
:10044000CB6A00210022BDE8B0401847E26BB4F847
:10045000403020460021BDE8B04001F07FBBB0B580
:100460000C460978054601F0030102290BD0A9B911
:10047000A87800F0FE00022810D1608801280DD174
:1004800000202872B0BDA088A978032906D1618810
:1004900021B940F08001C9B2802901D10120B0BD4D
:1004A000D5F888108A6BC1B228469047D5F88400E9
:1004B0002146C268284690470020B0BD81780329B4
:1004C00005D0022901D1017821B1012070470178BE
:1004D0000029FAD04FF00111C0E90F010020704748
:1004E00070B50D460978044601F0030101290BD0CF
:1004F000002945D1698801200A0A022A0BDC012A59
:1005000017D0022A2ED03CE0D4F884002946C268D5
:100510002046904735E0032A20D00F2A31D1D4F865
:1005200080008068002814BF41880021A4F8401092
:1005300025E042F2B420C0F6000000EB820050F843
:10054000043C04F14006C9B2204632469847E98887
:10055000E063402904BF0820308011E001F0FE0074
:1005600005280DD842F2B420C0F6000000EB82004E
:1005700050F8043C04F14002C9B220469847E063B9
:100580000120B4F84020A2B1E98891B1B4F811007B
:100590008A4238BF11468142A4F8401008D294F82C
:1005A0003800B1FBF0F202FB101008B90120E07432
:1005B000002070BD8278032A01D1097909B1012098
:1005C0007047D0F884104FF001120131C0E90F12CA
:1005D000002070470A78898802F00302022A18D0A6
:1005E000012A0ED00ABB817801F0FE0102291CD13C
:1005F0000279017A002A18BF0122002918BF911C34
:100600001DE0827809064FF0010126D1032A1BD094
:1006100023E08278032A08D10A0608D4C9B201EB84
:10062000410100EB8101153108E0012115E001F0E5
:100630007F0101EB410100EB81013931097840F282
:100640003812C2F20002117040F23811C2F20001F9
:100650004FF00212C0E90F12002108467047012036
:1006600070478A8842B9CA8832B9897801F07F0117
:1006700041708278032A01D10120704700290CBF04
:100680000121022181700020704770B5044648881E
:1006900040F23A16C2F2000610F0FE0F307001D0A0
:1006A000012524E0A17803290ED00229F8D1010602
:1006B0001CD0D4F884104A68C1B2204690473078E4
:1006C00020700320A07011E0010612D02178C0B282
:1006D00081420BD0D4F88400826820469047D4F839
:1006E00084003178426820462170904700252846D2
:1006F00070BDD4F884000021826820460025904710
:10070000307820700220A070F1E70020704780B59B
:100710000A7802F00302022A0CD0B2B9827802F001
:10072000FE02022A11D1498801294FF001010DD1A1
:10073000017212E08A888378032B06D1498821B997
:1007400042F08001C9B2802902D10121084680BD52
:10075000D0F888104B6BD1B298470021F6E7827829
:10076000032A01D10A790AB1012070478978D0F8AB
:10077000840041700020704700207047D0F880004E
:10078000C06850F8210001781180704780B500F0F2
:1007900002F9002080BD000080B57BB101F100614D
:1007A00001F5804CA3F1010332B111461CF801EBB5
:1007B000013900F801EBF9D1002BF3D1002080BD05
:1007C0002DE9F04113B3054644F20000C0F60000E5
:1007D000014440F6FF721C4621EA020600F5F828A3
:1007E000304600F017F8464503D206F5006000F0E9
:1007F00011F80027E959F01900F0F6F80437B7F5B9
:10080000805FF7D1013C3E443D44E9D10020BDE882
:10081000F08100004FF2E071C1F6FF7109880023FA
:1008200042F20C0CCFF20103B1F5007FC4F2020CCE
:100830000DD94FF6FF71C0F60701884231D2194633
:10084000DCF80020D20735D00131F9D330E0194669
:10085000DCF80020D20702D00131F9D328E0DCF81F
:100860000010C90670D4DCF80010022202EA51011F
:10087000002940F08E80DCF8041041F00201CCF831
:100880000410CCF80800DCF8040040F04000CCF87C
:10089000040000BFDCF80000C00757D00133F9D3D3
:1008A00028E01946DCF84020D20725D00131F9D3E1
:1008B00004216EE0DCF80010C90645D4DCF8001015
:1008C000022202EA5101002963D1DCF8041041F050
:1008D0000201CCF80410CCF80800DCF8040040F069
:1008E0004000CCF8040000BFDCF80000C0072DD0A9
:1008F0000133F9D3042134E0DCF84010C90623D4D5
:10090000DCF84010022202EA5101002941D1DCF852
:10091000441041F00201CCF84410CCF84800DCF857
:100920001010890748BFCCF80800DCF8440040F0FC
:100930004000CCF8440000BFDCF84000C00717D0EE
:100940000133F9D304211EE0032122E0DCF800008A
:10095000C00605D4DCF80000022101EA500100E0E5
:100960000321DCF8040020F00200CCF8040010E0C1
:10097000DCF84000C00605D4DCF84000022101EAA2
:10098000500100E00321DCF8440020F00200CCF824
:1009900044000846704742F20400C4F20200C168F5
:1009A000090609D540F22311C4F26751016048F6E7
:1009B000AB11CCF6EF5101604FF2E071C1F6FF715F
:1009C0000988B1F5007F0DD9C16C090658BF704781
:1009D00040F22311C4F26751016448F6AB11CCF622
:1009E000EF5101647047000010B54FF2E072C1F69C
:1009F000FF721288002442F20C0ECFF20104B2F50D
:100A0000007FC4F2020E0ED94FF6FF72C0F6070245
:100A100090422AD2224600BFDEF80030DB072ED0FB
:100A20000132F9D328E02246DEF80030DB0702D09D
:100A30000132F9D320E0DEF80020D20657D4DEF8E8
:100A40000020022303EA520CBCF1000F77D1DEF83C
:100A5000042042F00102CEF804200160DEF800001C
:100A6000C00747D00134F9D322E02246DEF84030F7
:100A7000DB0720D00132F9D34FF0040C5FE0DEF841
:100A80000020D20633D4DEF80020022303EA520C01
:100A9000BCF1000F53D1DEF8042042F00102CEF881
:100AA00004200160DEF80000C00723D00134F9D330
:100AB0004FF0040C2AE0DEF84020D20617D4DEF80E
:100AC0004020022303EA520CBCF1000F37D1DEF8BC
:100AD000442042F00102CEF844200160DEF84000DC
:100AE000C0071AD00134F9D34FF0040C21E04FF0C5
:100AF000030C24E0DEF80000C00605D4DEF8000098
:100B0000022101EA500C01E04FF0030CDEF8040072
:100B100020F00100CEF8040011E0DEF84000C0062D
:100B200005D4DEF84000022101EA500C01E04FF04C
:100B3000030CDEF8440020F00100CEF844006046CB
:100B400010BD416170470161704742F20000C4F27C
:100B50000100102103224FF4807300F001B800005F
:100B60002DE9F047CF0601F00F0C09D5042A05D175
:100B7000C26B4CF0030C1A43C26301E04CEA020C56
:100B800000F1100E00F1140800244FF0010A4FF09C
:100B90000F0900270AFA07F21A4010D0056809FA6F
:100BA00004F6B5430CFA04F6282946EA050603D0F4
:100BB000482903D1754600E045462A6006600137A2
:100BC000082F04F10404E5D1082400254FF0010AA0
:100BD0004FF00F090AFA04F21A4010D0466809FAD9
:100BE00005F7BE430CFA05F7282947EA060703D0A4
:100BF000482903D1764600E046463260476001341A
:100C0000102C05F1040508BFBDE8F087E2E70000FD
:100C100000F0D0FAFFF799FF41F2B814C2F20004D5
:100C200040F2240140F20402C2F20001C2F20002CA
:100C3000204601F006F900F0E2F9D4F88800816856
:100C4000012088470520A070A0780328FCD100BFB0
:100C5000FEE780B5FFF79AFD002080BD00207047B9
:100C60000020704780B5084611464FF48052FFF7C8
:100C700093FD002080BD0020704780B508461146D6
:100C80004FF48052FFF79CFD002080BD70B5D0F876
:100C90008C50044641F21400285C41F2020105EB3D
:100CA000010698B1D4F888008121426B2046904714
:100CB0003078022818BF70BD41F208002A1820467B
:100CC00002211F23BDE8704000F0F5BED6F80E00EB
:100CD0000028E7D030780028E4D1D4F88800022139
:100CE000426B20469047DDE710B5D0F88C2041F2EA
:100CF000020C12F80C30022B09D1D0F8881002EB4C
:100D00000C044B6B812198470020207010BD49B224
:100D1000B1F1FF3FFADC012B08BF10BD0121BDE896
:100D20001040AFF30080B0B5D0F88C50044641F2CB
:100D3000280045F255332A18C5F242332B5011735F
:100D400041F2010000212954204681210D2300F0A9
:100D500005FF41F208002A18204602211F23BDE8A2
:100D6000B04000F0A8BE10B50446D0F88C0041F2A7
:100D70000101425CD31E022B02D2204600210FE06B
:100D8000022A11D10144097D41F217020244204692
:100D900000F062FAB0F1FF3FC8BF10BD204601214C
:100DA000BDE81040FFF7BFBF10BD70B5D0F88C5044
:100DB00041F201010446685C6E18012827D080BB0F
:100DC000E08ED6F80B10D6F80F201F28C6F82B108F
:100DD000C6F82F200ED1D6F8070045F25531C4F2DF
:100DE0004231884206D1317D012903D8707D013816
:100DF00010281DD3317D20460522202300F026FD3A
:100E0000022120467170BDE87040FFF73FBF317D81
:100E100041F217002A18204600F01EFAB0F1FF3FF9
:100E200000DD70BD20460121BDE87040FFF77BBFAB
:100E300041F217002A18204600F00EFAB0F1FF3FE9
:100E400025DD307801380328EBD3D6F8030000B352
:100E5000D4F88C6041F2010C06EB0C01D1F80F20A4
:100E6000D1F82F30824238BF10461A1AC1F82F200D
:100E700000224FF0040E81F8332083B220468121F6
:100E80002A4606F80CE0BDE8704000F067BE204638
:100E9000B9E720460021C7E7D0F88C0041F20101F4
:100EA000002242547047B0B5D0F88C50044641F24D
:100EB00001000021295240F2F800C2F2000000684F
:100EC00001680020884741F208002A1820460221C4
:100ED0001F23BDE8B04000F0EEBD10B5D0F88CC0C7
:100EE00041F2010E4FF4807441F208010CEB010253
:100EF00002211F232CF80E40BDE8104000F0DBBD9E
:100F000010B50446D0F888008121426A20469047F7
:100F1000D4F888000221426A204690472046FFF715
:100F2000BBFF002010BDFFF71EBF70B540F23C159F
:100F3000C2F200050446284641F27C01FFF71BF986
:100F4000D4F88800C4F88C5042F2E616056AC0F660
:100F5000000606F1120320460021C022A847D4F85B
:100F6000880006F11903056A204600214FF48072BB
:100F7000A84740F20400C2F20000D0E90610216741
:100F8000A0672046FFF78FFF002070BDFFF70DBF61
:100F900010B54A780446012A1DD0FF2A21D0FE2A26
:100FA00023D1488808BBC88801281ED191F90000C8
:100FB000B0F1FF3F19DC40F2F800C2F20000006817
:100FC0004069804741F25C21C2F2000108700120B3
:100FD000C4E90F1003E009792046FFF785FE0020E1
:100FE00010BD488808B9C88808B1022010BD91F921
:100FF00000000028F9D42046FFF76FFFEFE780B527
:101000004FF4A06000F065F814200221002200F0E7
:1010100007F8132001210022BDE88040AFF30080D3
:101020004EF60C5CCEF2000CDCF8003003F4E0630A
:10103000B3F5E06F03D14FF0000C042330E0DCF88F
:10104000003003F4E063B3F5C06F03D14FF0010C3F
:10105000032325E0DCF8003003F4E063B3F5A06F70
:101060001BD0DCF8003003F4E063B3F5806F03D1EC
:101070004FF0030C012313E0DCF8003003F4E063CD
:10108000B3F5407F03D14FF0040C002308E040F299
:101090000053C0F2FA53CCF8003002234FF0020C98
:1010A00099400F2323FA0CF31A4011434EF2001219
:1010B000CEF20002090140EA020383F8001300F0B7
:1010C0001F01012303FA01F11C2303EAD000815020
:1010D000704740F080604EF60C5140F0FD70CEF24B
:1010E000000108607047000010B541F20404C4F22A
:1010F0000204216801F00C01082941F20021C0F22C
:101100007A012AD1236840F6001CDB03C0F23D0CB3
:101110000DD5A36AD4F800E05B0046F60043C0F2A8
:10112000DC2358BF0B465FEA8E3158BF9C462168CE
:10113000C1F3834E2368102101EAD35123688E4402
:10114000202101EA536171440E2901D8023102E0E5
:101150003F2918BF013101FB0CF123680328C3F3B9
:1011600003132268C2F3022C22680DD80DA4E35C9D
:1011700042F2381E21FA03F3C0F6000EDFE800F059
:101180000F02060919460AE0002108E01EF80C00CB
:1011900003E0C2F3C2201EF8000023FA00F1084663
:1011A00010BD00BF000000000000000001020304A9
:1011B0000607080910B50020FFF796FF04464FF414
:1011C000C16000F030F84DF2FF70C0F2B8508442B8
:1011D0000DDC46F60040C0F2DC20844216D04AF214
:1011E0000020C0F24A40844217D1002013E04DF69F
:1011F0000000C0F2B85084420BD040F60060C0F24C
:101200002770844209D14FF4000004E04FF48000BD
:1012100001E04FF4400000F015F840F21770BDE80F
:101220001040AFF3008041F2000300F01F0180097D
:10123000C4F202034FF0010CC2580CFA01F1114341
:10124000C150704741F20401C4F202010A6822F45D
:1012500040021043086070472DE9F04716461278A7
:101260000D46192A04462BDD2E2A34DCA2F11A0081
:10127000102800F2E481DFE810F011009B00E20189
:10128000E2019B00E201E201E201E201A200E201CF
:10129000C300E201E201EB00E2013701D4F88C0067
:1012A00041F204010822425042F220220721C0F6F6
:1012B000000200BF535C435401394B1CFAD1DBE1FF
:1012C000032A28DD042A00F0D781122A00F0538176
:1012D000152A6DD0B3E1542A53DC2F2A00F0648123
:1012E000432A40F0AC8140F2F800C2F200000068EE
:1012F00005EB8501806941F2040300EB810042782F
:10130000D4F88C100232CA50013A93B2C75C002B59
:10131000CF54F9D1B0E1002A00F07081032A40F0E7
:101320008E81D4F88C5041F204002C18681C1121D5
:10133000FEF721FF41F2380041F23902285CAA5C35
:101340007021297090424FF00C01E97113D000EB2D
:10135000400105EB810141F24C028B5C1144AB7002
:101360004A7A097A01302A736973C1B2043918BF05
:10137000014684F834103079122828BF12202060EA
:101380007AE1552A14D05A2A40F05981D4F88C00B9
:1013900041F204010822425042F218220721C0F60D
:1013A000000200BF535C435401394B1CFAD163E186
:1013B000D4F88C0041F204010024445001E240F2D0
:1013C000F800C2F200000068D4F88C2000EB850021
:1013D000D0E908104FF0006301381360030E137159
:1013E000030C5371030A9371D07102201072080C20
:1013F0005072080A9072D17241F204000C2125E06B
:1014000040F2F800C2F200000068D4F88C2000EB33
:101410008500416A02EB85074FF48256B951006A94
:101420004B1E41F23C017E187850190C5170190A7C
:101430009170D370F1781B0E117171881370517116
:10144000010A9171D07141F204000821115013E199
:10145000D4F88C7041F20100395C07EB00080029D8
:1014600000F01A814FF4805641F2480040F2F80132
:101470003858C8F80360C2F200010968B0F5805F0F
:1014800038BF0646D1F80CC007EB850041F23C019D
:10149000405841F24401B6FBF0F07A5883B2284636
:1014A0003946E047B0F1FF3F40F3E88041F20100E8
:1014B0003D18B3B2204681213A4600F04FFBD5F8E3
:1014C0002F00D5F84310D5F847203144921BA0EBEC
:1014D0000600C5F84310C5F84720C5F82F0040F0B6
:1014E000CB8003202870C7E0D4F88C8041F2010043
:1014F00018F8001008EB000A002900F0E680DAF87E
:10150000476008EB850041F23C01DAF84320B6F56C
:10151000805F28BF4FF48056405840F2F801C2F275
:1015200000010968B6FBF0F00F6983B22846414616
:10153000B847B0F1FF3F40F3A180DAF82F10DAF896
:101540004300DAF847208319901BA1EB0601CAF883
:101550004330CAF84700CAF82F1000F00C81B0F5EC
:10156000805F28BF4FF4805083B22046022142465C
:1015700000F0A1FA80E07178D4F88C00C9076CD132
:1015800040F2F801C2F200010968337901EB8501EC
:10159000C9690A7905329A4264D341F20402835040
:1015A000002B1A4662D167E07078D4F88C1041F2B3
:1015B0000402800701EB02000BD4026CB0F8443047
:1015C00001EB85074FF48256BF591A44BA4240F2E4
:1015D000CF8090F83520052602EB420301EB830112
:1015E00041F24C03CF18CE5400213972511CCAB2BB
:1015F000043A18BF0A4680F83520E1E0D4F88C00A0
:1016000041F21001415841F20402002900EB0206A8
:1016100000F0A28096F83510052701EB410200EB9F
:10162000820041F24C028318875400201872481C33
:10163000C1B2043918BF014686F83510C0E0D4F8AD
:101640008C0041F23901425C41F24C0702EB42034B
:1016500000EB8303DE190525A9E042F22821C0F63C
:101660000001602241F20403C25000BF013A93B26C
:10167000CF5C002BC754F9D10024A2E0D4F88C0031
:1016800041F23901425C41F24C0702EB420300EBAC
:101690008303DE1904258AE098F91300002870D42A
:1016A00098F8380041F24C0200EB400107EB810151
:1016B00005278B188F54002101301972C1B20439EB
:1016C00018BF014688F838107AE09AF91300B0F193
:1016D000FF3F79DD40F2F809C2F20009D9F80000B5
:1016E000416828468847002854D1D9F8000081680D
:1016F0002846884700284DD1D6F8020002BACAF819
:101700004320F079317A4FF4825641EA0021D4F82F
:101710008C00CAF8471000EB85039B598E189E4237
:101720008FD808EB850341F23C069D596A43CAF8FD
:1017300043209A59DAF80F3051438B42CAF84710C8
:101740007FF47FAF01208AF80000B1F5805F28BFE9
:101750004FF480518BB208E740F2F800C2F200006B
:101760000068416828468847A0B90024346028E012
:101770000024046025E0204600210024FFF7D3FA6E
:101780001FE040F2F800C2F20000006841682846FD
:10179000884770B3D4F88C0041F23901425C41F2C1
:1017A0004C0702EB420300EB8303DE190225DD55F3
:1017B000002301323372D3B2043B18BF13464354A3
:1017C000FF2460B2BDE8F0879AF8380041F24C027D
:1017D00000EB400108EB810105268B188E54002197
:1017E00001301972C1B2043918BF01468AF83810A5
:1017F000E6E7D6F8020002BAC8F84320F079317A59
:101800004FF4825641EA0021D4F88C00C8F8471002
:1018100000EB85039B598E189E423FF612AF07EBF3
:10182000850741F23C06BB594FF0020C5A4388F839
:1018300000C0C8F84320BA59D8F80F3051438B4242
:10184000C8F847107FF4FDAE07460BE610B5D0F898
:101850008C0041F2390C10F80C3041F24C0E03EBC5
:10186000430100EB810101EB0E0401F80E20002181
:101870002172591CCAB2043A18BF0A4600F80C205B
:1018800010BD0000B0B5017806290BD142F200115D
:10189000C4F202010968002908BFB0BD4180090CEB
:1018A0008180B0BD4FF2E871C1F6FF710A688B68A4
:1018B000D2182CD049684FF0000C4FF0370E00239F
:1018C000140F0EEB1275B2F1204F38BF04F1300542
:1018D00000EB430401331201082BA57084F803C008
:1018E000EED14FF0000C3723002200BF0D0F03EBA9
:1018F0001174B1F1204F38BF05F1300400EB4205FF
:1019000001320901042AAC7485F813C0EED1B0BDD0
:10191000407845F64C4140F08000C4F20001086078
:1019200070478278032A01D10A790AB101207047F1
:10193000D0F88420D268104745F64040C4F2000039
:10194000012101600021016041600161016841F4F1
:101950001F410160704745F64040C4F2000001217C
:10196000016000214160032101607047012842F2BB
:101970000000C4F201004FF4807118BFFFF7E1B816
:10198000FFF7E1B880B5012A06D0C2B940F20002E3
:10199000C2F2000212680CE045F60042C4F20002F6
:1019A00052F8213040F20002C2F2000212685B06D7
:1019B00008D402EB011202F10C01083205E04FF0ED
:1019C000000C20E002EB0112111DD1F800C01168DB
:1019D0006FF39F2C0CF101020023B3EB520F12D0D6
:1019E00045F60043C4F2000303EB41014FEA520EF7
:1019F00001F58063002100BF53F8042B01318E45AF
:101A000020F8022BF8D8604680BD0000B0B540F247
:101A10000003C2F20003D3F800E045F6004CC4F224
:101A2000000C9AB10B015EF80340531C0025B5EB86
:101A3000530F0BD00CEB44045B0804F5806400BF2B
:101A400030F8025B013B44F8045BF9D10EEB011066
:101A500042604CEA8100016848F6BF72114081F093
:101A600030010160B0BD45F6004301F07F02C4F2D1
:101A7000000348B253F82210B0F1FF3F43EA82005E
:101A80000BDD490406D5016848F68F72114001F557
:101A9000804101604BF68F7109E0490605D5016868
:101AA00048F68F7211404031016048F6BF710268FC
:101AB00011400160704780B501F07F0C0CEB4C0CBD
:101AC00000EB8C0CACF81C304FF0000ED0F88830D6
:101AD000ACF81EE09B6ACCF81820BDE8804018479F
:101AE00040F20001C2F200010968402200234FF0D9
:101AF000800C0A604B6080F83820C1F808C002757D
:101B000048F2FF72CA6045F60041C4F200014A681B
:101B100048F68E731A4001324A608A6848F68D731F
:101B20001A4002328A600A6892B20A6043F22022A6
:101B30000A60C1F84CC001218170704701F07F003C
:101B400045F60041C4F2000151F820204BF68F7396
:101B50001A4082F4405241F820207047F0B581B01D
:101B600001F07F01154601EB410200EB820797F877
:101B70003860D0F888001C46B342C36A38BF264696
:101B8000284632469847A819A11BF863A7F84010C9
:101B9000A7F8426001B0F0BD70B593F803E093F987
:101BA00002400EF0030E62A555F82E509B8845F6B4
:101BB000004604F07F0CC4F2000645EA0C0546EA34
:101BC0008C0EB4F1FF3FDCB246F82C502EDD0CEB4E
:101BD0004C0500EB85000475D9B3012941D1DEF82D
:101BE000000048F68F64204000F58070CEF80000B9
:101BF000DEF8000048F68F7420404030CEF8000038
:101C000040F20000C2F20000006895B200EB0C1434
:101C10004FEA0C16120C3F2B8551A2605ED34FF099
:101C2000FF3202EB431242F4004260E00CEB4C0343
:101C300000EB8300012980F838402AD0002976D1B2
:101C400040F20000C2F2000000684FEA0C1142505E
:101C50005CE040F20000C2F20000006800EB0C10F3
:101C6000826040F20000C2F2000000683F2B06D301
:101C70004FF0FF3202EB431242F4004238E04FF4DF
:101C8000007202EB43224FF60043C0F2FF331A40CA
:101C90002EE0DEF8000048F68F61084000F5807005
:101CA000CEF8000040F20000C2F20000006891B2DD
:101CB0004FEA0C1600EB0C138151100C9860DEF803
:101CC000000048F6BF71084080F03000CEF80000F8
:101CD000DEF800004BF68F71084026E04FF40072EA
:101CE00002EB43224FF60043C0F2FF331A4062601A
:101CF00000EB0C10C26089B1012918BF70BDDEF87D
:101D000000004BF68F710840CEF80000DEF80000AE
:101D100048F6BF71084080F0200006E0DEF80000C1
:101D20004BF68F71084080F40050CEF8000070BD73
:101D30000002000000040000000000000006000097
:101D400045F6004C01F07F02C4F2000C4BB25CF887
:101D50002210B3F1FF3F4CEA820315DD490408D598
:101D6000D3F800C048F68F7101EA0C0101F58041FB
:101D7000196002EB420100EB810000F115024FF403
:101D8000405C4BF68F7113E0490607D5D3F800C0CD
:101D900048F68F7101EA0C014031196002EB4201F3
:101DA00000EB810000F139024FF0300C48F6BF71B2
:101DB000002010701868084080EA0C001860704716
:101DC00011F07F0211D049B2B1F1FF3F45F6004159
:101DD00002EB4203C4F2000100EB83004FF0010369
:101DE00015DD437541EA82000AE045F60040C4F281
:101DF0000000016848F6BF72114081F010010160D7
:101E000001684BF68F72114081F4805109E080F82F
:101E1000393041EA8200016848F6BF72114081F012
:101E200010010160704745F6004201F07F00C4F2E6
:101E3000000252F8200049B200EAD11000F0300050
:101E4000704710B5044641F2502040F20813C2F228
:101E50000000C0F20023C0E90034C4E9201240F2BF
:101E6000CB32C0F6000240F2933340F2473C04F11B
:101E70005C0E40F2B800C0F60003C0F6000C8EE81D
:101E80000C10C2F200004968C4F88800C979022227
:101E900002EA5111217100680121E1718047D4F8F3
:101EA0008000C068C068BDE81040FFF7EBBC0000D0
:101EB0002DE9F04F81B045F6404AC4F2000ADAF845
:101EC0000400ADF80200DAF80400DAF80010084067
:101ED00020F0FF00ADF8000041F25020C2F20000F7
:101EE0004468BDF90000B0F1FF3F61DCDAF804009E
:101EF0000104ADF802005BD5AAF1400B48F60F785B
:101F000040F68F79BDF80200BDF8022000F00F0501
:101F10004BEA85000168D20612D4090642D5016851
:101F200001EA0801016005EB450004EB8000B0F810
:101F3000403073B3C26B20462946FFF70FFE31E0F5
:101F400009042FD5016801EA090101600068000554
:101F500019D4D4F888002946036B05EB450004EB3F
:101F60008006B06900229847F18BB2690144B38BB7
:101F70008FB29F420244B261F18302D2317D884226
:101F80000AD2326E06E0002D79D1E26D20460021A2
:101F900007E0426E1AB905E0D4F88800826A20464C
:101FA00029469047DAF804000104ADF80200A9D4EC
:101FB000BDF80000C0040BD56FF48050CAF80400CF
:101FC000E078A070607A18B9D4F88800406980473A
:101FD000BDF80000000514D5DAF80000C00610D4E2
:101FE000A078E179E0700420A07021B1D4F88800D5
:101FF0000069804701E00320A0716FF40060CAF817
:102000000400BDF8000080050CD56FF40070CAF81C
:10201000040041F25820C2F20000006810B10168CB
:1020200020468847BDF80000C0051BD56FF48070BE
:10203000CAF80400A079A8B101380106A07111D135
:10204000617ADAF8000029B120F01000CAF8000027
:10205000002006E040F01000CAF800000320A07144
:1020600001206072BDF80000400508D56FF4806063
:10207000CAF80400D4F88800C1692046884701B036
:10208000BDE8F08F45F64040C4F20000016821F041
:1020900004010160016821F008010160704741F20C
:1020A0005020C2F200004068007A012818BF704733
:1020B00045F64040C4F20000016841F010010160A3
:1020C000704700004A7802A353F82220104700BF4F
:1020D000D50500085F0400085F0600080F07000828
:1020E0005F06000863060008E10400080B0700080B
:1020F000BD0400088B060008B50500085F0700084E
:102100007907000845F64040C4F20000016841F03C
:102110000C01016070470120704702E008C8121FDF
:1021200008C1002AFAD170477047002001E001C1C0
:10213000121F002AFBD170470000000001020304B7
:1021400016034700690067006100440065007600DF
:10215000690063006500000000000000000000004E
:10216000000000000000000000000000000000006F
:10217000000000000000000000000000000000005F
:10218000000000000000000000000000000000004F
:10219000000000000000000000000000000000003F
:1021A000000000000000000000000000000000002F
:1021B000000000000000000000000000000000001F
:1021C0000000008000011F0000004744333220203F
:1021D0002020494E5445524E414C20464C415348D4
:1021E0002020312E303009022000010100C03209C8
:1021F00004000002080650000705810240000007A5
:102200000502024000001201000200000040E9281F
:102210008F1200010102030100060000000000000F
:102220000000000000000000000000005C80831A35
:102230000347004400330032002D00550053004294
:10224000005F004D0053004300000000000000004C
:10225000000000000000000000000000000000007E
:10226000000000000000000000000000000000006E
:10227000000000000000000000000000000000005E
:10228000000000000000000000000000000000004E
:10229000000000000000000000000000000000003E
:1022A000000000000000000000000000000000002E
:1022B000000000003B0300082F0300087D07000812
:1022C00004030904E822000800000020380100008F
:1022D000B0010008882300083801002028150000FC
:1022E0002A2100080000000055006000409D2B0FCF
:1022F0000008010F0008910F00082F270F00088D1C
:102300000F000806220008E6215208078324010076
:10231000201A032F39190008571900086D190008F1
:1023200011192C0805210008852000089F202C0881
:10233000E11A0008991B0008671A2C083D1B0008C9
:102340000D1A000885193F08C11D0008411D00082D
:10235000271E0008FC2C20530C0008770C00086195
:102360000C5E08650C00087B0C00085D0C0008374B
:10237000C2210008001042FC3EC02200084021009B
:08238000082F2200083452204E
:0400000508000131BD
:00000001FF
